:020000040800F2
:1000000070750020A1010008310B0008B508000838
:100010002D0B00088F0200085D1B00080000000087
:100020000000000000000000000000004D13000868
:100030009302000800000000AD0B0008B9010008A1
:10004000BB010008BB010008BB010008BB010008A0
:10005000BB010008BB010008BB010008BB01000890
:10006000BB010008BB010008BB010008BB01000880
:10007000BB010008BB010008BB010008BB01000870
:10008000BB010008BB010008BB010008BB01000860
:10009000BB010008BB010008BB010008BB01000850
:1000A000BB010008BB010008BB010008BB01000840
:1000B00099170008BB010008BB010008BB0100083C
:1000C000BB010008BB010008BB010008BB01000820
:1000D000BB010008BB010008BB010008BB01000810
:1000E000BB010008BB010008BB010008BB01000800
:1000F000BB010008BB010008BB010008BB010008F0
:10010000BB010008BB010008BB010008BB010008DF
:10011000BB010008BB010008BB010008BB010008CF
:10012000BB010008BB010008BB010008BB010008BF
:10013000BB010008BB010008BB010008BB010008AF
:10014000BB010008BB010008BB010008BB0100089F
:10015000BB010008BB010008BB010008BB0100088F
:10016000BB010008BB010008BB010008BB0100087F
:10017000BB010008BB010008BB010008BB0100086F
:10018000BB010008DFF80CD000F02EF80048004753
:10019000511E00087075002080F308887047000029
:1001A0000648804706480047FEE7FEE7FEE7FEE711
:1001B000FEE7FEE7FEE7FEE7FEE7FEE73D17000885
:1001C00085010008D2B201E000F8012B491EFBD2E4
:1001D00070470022F6E710B513460A460446194652
:1001E000FFF7F0FF204610BD064C074D06E0E06823
:1001F00040F0010394E8070098471034AC42F6D36E
:10020000FFF7C4FF041F0008241F000810B50022D8
:100210000121880701F0C5FB00214FF0804001F06B
:10022000DAFA10BD1FB54FF47A740121084600F0C8
:10023000CFFCE00601F0DCFA0020ADF80200ADF8DA
:100240000800601E01904720ADF800006946E006F6
:1002500001F0B2FB1C208DF80C000A208DF80D0077
:1002600000208DF80E0001208DF80F0003A800F08B
:1002700061FC0021E00601F09DFB01221146900780
:1002800001F08FFB0121880701F0A5FA1FBD00BF17
:10029000FEE7704700B587B00121084600F088FCF2
:1002A0000121084600F084FC0121102000F0B0FC80
:1002B00007220921214800F0BBFA07220A211F4822
:1002C00000F0B6FA4FF40070059002208DF8180087
:1002D00000208DF81A0002208DF8190001208DF8F9
:1002E0001B0005A9154800F05BFA4FF480600590EB
:1002F00001208DF81A008DF81B0005A90F4800F0A9
:100300004FFA4FF4E13001900020ADF80800ADF84D
:100310000A00ADF80C00ADF810000C20ADF80E008E
:1003200001A9074801F0ACFB0121054801F08FFB52
:100330004021034801F082FB07B000BD00000240ED
:100340000010014010B50446240300F0FBF800F053
:1003500093F84FF400410C4800F08DFA202000F093
:10036000C1FDC4F3074000F0BDFDC4F3072000F059
:10037000B9FDE0B200F0B6FD4FF40041024800F0D4
:100380007CFA00F079F810BD000002401CB5012194
:10039000084600F00DFC4FF40040009001208DF85D
:1003A000040000208DF8060003208DF805000120D0
:1003B0008DF807006946074800F0F2F94FF4004154
:1003C000044800F05AFA00F027FD03A001F0AEF84F
:1003D0001CBD000000000240464C4153485F535092
:1003E00049206973207265616479210D0A0000005B
:1003F0002DE9F04106460C4617464FF400411148DE
:1004000000F039FA032000F06DFDC4F3074000F05E
:1004100069FDC4F3072000F065FDE0B200F062FD65
:10042000002505E0FF2000F05DFD7055681C85B2D9
:10043000BD42F7DB4FF40041024800F01EFABDE870
:10044000F08100000000024010B500244FF400418C
:10045000084800F010FA052000F044FDFF2000F0ED
:1004600041FD04464FF40041024800F006FA2046E0
:1004700010BD00000000024010B500BFFFF7E4FF10
:1004800000F001000028F9D110BD00002DE9F05F57
:1004900081460F461646DFF8A8B04FEA1738C7F373
:1004A0000B0ACAF58054A64200DC344644E04FEA09
:1004B00008314FF480525846FFF79AFF002508E0B4
:1004C0000AEB05001BF80000FF2800D003E0681CC1
:1004D00085B2A542F4DB00BFA54216DA4046FFF71D
:1004E00031FF002507E019F8050005EB0A010BF8BC
:1004F0000100681C85B2A542F5DB4FEA08314FF4D4
:100500008052584600F030F804E02246394648460A
:1005100000F02AF8A64200D10FE008F101084FF0E0
:10052000000AA1442744301B86B2B6F5805F02DD85
:100530004FF4805400E03446B9E700BFBDE8F09FB7
:100540007005002010B54FF40041064800F093F903
:10055000062000F0C7FC4FF40041024800F08DF97E
:1005600010BD0000000002402DE9F04107460E4694
:100570001446F0B2C0F58075AC4200DC254612E0AE
:100580002A463146384600F013F8AC4200D10BE061
:100590002F442E44601B84B2B4F5807F02DD4FF4FB
:1005A000807500E02546EBE700BFBDE8F081000064
:1005B0002DE9F04106460C461746FFF7C3FF4FF4FE
:1005C0000041114800F057F9022000F08BFCC4F301
:1005D000074000F087FCC4F3072000F083FCE0B282
:1005E00000F080FC002504E0705D00F07BFC681CDE
:1005F00085B2BD42F8DB4FF40041034800F03DF9FD
:10060000FFF73AFFBDE8F0810000024001B500208D
:100610000099C1F309021AB1012202EB912000E016
:10062000880A08BDF0B5ADF2444D00270020CDF892
:100630004004CDF83C04CDF83804CDF83404CDF8AE
:1006400030044FF480610CA8FFF7C3FD43A207CA32
:1006500009AB07C341A207CA06AB07C30024142194
:1006600001A8FFF7B6FD404E012240490DF5886014
:10067000FFF7BEFE9DF840040A286BD101223B49DA
:10068000491C0DF23C40FFF7B3FE01223749891C9B
:100690000DF58760FFF7ACFE01223449C91C0DF24D
:1006A0003440FFF7A5FE01223049091D0DF5866093
:1006B000FFF79EFE9DF83C0400069DF8381440EAC2
:1006C00001409DF8341440EA01209DF8301440EABE
:1006D00001041CB900200DF2444DF0BD214609A8CB
:1006E00000F0EAF822A000F021FF09A800F01EFFA8
:1006F00022A000F01BFF2046FFF788FF04460025DC
:1007000018E024A000F012FF4FF480622248016834
:100710000CA8FFF76DFE4FF480620CA9304601F083
:1007200063FB06F580661C48006800F580601A4986
:1007300008606D1CA542E4D30020CDF840040122DE
:100740000A490DF58860FFF7A1FE14A000F0EEFE47
:10075000012700E000273846BDE7000020202020C8
:10076000202020202020000000000108E7FFEF01EA
:100770000A0D2053697A653A200000000A0D2075A1
:1007800070646174652E2E2E2E2E2E2E2E2E2E2E61
:10079000000000002E0000005C0000200A0D000098
:1007A000F0B50A4600210023002400BF3DE00125EA
:1007B00005FA01F3156805EA03049C4234D1056883
:1007C0004F000326BE40B543056015794E00B54085
:1007D0000668354305601579012D02D01579022D83
:1007E00016D185684F000326BE40B5438560557914
:1007F0004E00B540866835438560456801268E40C9
:10080000B5434560456896798E40B6B2354345603C
:10081000C5684F000326BE40B543C560D5794E007C
:10082000B540C6683543C560491C1029BFD3F0BD2B
:10083000F0B5002300244D07ED0E02FA05F3CE10AB
:1008400000F1200555F826504E07F70E0F26BE4042
:10085000B543CF1000F1200646F82750CE1000F126
:10086000200555F8265045EA0304CE1000F1200576
:1008700045F82640F0BD4183704701837047000072
:1008800008B50020009004E0684600F02FFE00B19B
:100890000AE00748406840F6B831884201DC012090
:1008A00000E000200028EFD100BF9DF8000008BD47
:1008B0006000002000BFFEE7F0B5144A00250024C8
:1008C000002320E0B1FBF2F6303606F0FF0C2E4696
:1008D0006D1C00F806C0B1FBF2F602FB16110A26E9
:1008E000B2FBF6F26E1E865D302E01D1012600E0CD
:1008F00000260CB9012700E000273E400EB100257C
:1009000000E0641C5B1C0A2BDCD3F0BD00CA9A3BE0
:1009100070B500240025FFF785FEC5B2012D03D177
:1009200026A000F003FE02E02AA000F0FFFD39E05F
:100930003048007810B1012832D112E02EA000F02A
:10094000F5FD3DA000F0F2FD42A000F0EFFD47A054
:1009500000F0ECFD54A000F0E9FD012025490870ED
:100960001FE057A000F0E2FDFFF78AFF0446312C9C
:1009700005D100F0F3FC55A000F0D8FD0FE0322CBB
:100980000DD15BA000F0D2FD60A000F0CFFDFFF71D
:100990003DFC5F4801F00EFA5EA000F0C7FD00E0EC
:1009A00000BF00BF60484068B0F5967F01DC0120C1
:1009B00000E000200028BBD170BD00000D466C6136
:1009C0007368207570646174652073756363657303
:1009D000730A0D000D466C61736820646F6E277496
:1009E0002068617665204170706C69636174696F1D
:1009F0006E0A0D00380000200D2A2A2A2A2A2A2AE7
:100A00002A2A2A2A2A2A2A2A2A2A2A2A2A2A2A2A46
:100A10002A2A2A2A2A2A2A2A2A2A2A2A2A2A2A2A36
:100A20002A2A2A2A2A2A2A2A2A2A2A2A2A2A2A2A26
:100A30002A2A0D0A00000000312E556172742055DB
:100A40007064617465204170706C69636174696F72
:100A50006E0D0A00322E52756E20204170706C6946
:100A6000636174696F6E0D0A000000002A2A2A2A49
:100A70002A2A2A2A2A2A2A2A2A2A2A2A2A2A2A2AD6
:100A80002A2A2A2A2A2A2A2A2A2A2A2A2A2A2A2AC6
:100A90002A2A2A2A2A2A2A2A2A2A2A2A2A2A2A2AB6
:100AA0002A2A2A2A2A0D0A00706C65617365207350
:100AB000656C6563742031206F7220323A0D0A0034
:100AC0002E2E2E2E2E2E0D0A000000000D556172C6
:100AD0007420557064617465204170706C69636145
:100AE00074696F6E2046696E6973680A0D000000B4
:100AF00072756E20696E746F204170706C696361ED
:100B000074696F6E2E2E2E0D0A000000200D0A0053
:100B1000000001086E6F20757365722050726F6758
:100B200072616D0D0A0A00006000002000BFFEE740
:100B30007047000070B5002100230F22C4781CB359
:100B4000174C246804F4E064C4F5E064C4F307219E
:100B5000C1F10404E3B20A4144789C40E1B28478D4
:100B6000144021430C07210E0E4C05786155047882
:100B700004F01F050124AC4005786D11AD0005F1AE
:100B8000E025C5F8004109E0047804F01F050124C0
:100B9000AC40054D0678761145F8264070BD000042
:100BA0000CED00E000E400E080E100E070470000B0
:100BB00029B1064A12680243044B1A6004E0034A52
:100BC00012688243014B1A607047000030380240BF
:100BD00029B1064A12680243044B1A6004E0034A32
:100BE00012688243014B1A6070470000403802408F
:100BF00029B1064A12680243044B1A6004E0034A12
:100C000012688243014B1A6070470000203802408E
:100C100029B1064A12680243044B1A6004E0034AF1
:100C200012688243014B1A6070470000443802404A
:100C300029B1064A12680243044B1A6004E0034AD1
:100C400012688243014B1A6070470000243802404A
:100C5000F0B5002100220024022500260223324F95
:100C60003F6807F00C0121B1042905D0082937D1CC
:100C700005E02E4F076036E02D4F076033E02A4F26
:100C80003F1F3F68C7F38056274F3F1F3F6807F05D
:100C90003F036EB1264FB7FBF3F7DFF88CC0ACF122
:100CA000040CDCF800C0CCF3881C07FB0CF40CE04F
:100CB0001E4FB7FBF3F7DFF870C0ACF1040CDCF8A3
:100CC00000C0CCF3881C07FB0CF4174F3F1F3F6894
:100CD000C7F301477F1C7D00B4FBF5F7076002E016
:100CE000124F076000BF00BF0F4F3F6807F0F001D1
:100CF0000909104F7A5C0768D74047600A4F3F6880
:100D000007F4E051890A0B4F7A5C4768D740876047
:100D1000054F3F6807F46041490B064F7A5C47680E
:100D2000D740C760F0BD0000083802400024F4003E
:100D300040787D011400002070B505460C4606E0A1
:100D4000284600F0D3FB012801D1002070BD201EF1
:100D5000A4F10104F4D1401EF8E72DE9F84304465C
:100D60000D4690460020286041466846FFF7E4FFA4
:100D700018B14FF0FF30BDE8F8839DF80000182847
:100D800013D006DC012809D0022809D0042820D17C
:100D900009E041281AD061281BD118E080271BE008
:100DA0004FF4806718E00020E5E741466846FFF70A
:100DB000C3FF40B99DF80000182804D14FF0FF3060
:100DC00028600020D7E74FF0FF30D4E700BF0120B4
:100DD000D1E74FF0FF30CEE700BF9DF80000207054
:100DE000012609E0A0194146FFF7A6FF10B14FF018
:100DF000FF30C0E7701C86B2781D8642F2DB617856
:100E0000A07880F0FF00814202D04FF0FF30B2E7BF
:100E10002F600020AFE7000000B587B0012104205B
:100E2000FFF7C6FE0121C803FFF7D2FE06220A2102
:100E30002A48FFF7FDFC06220B212848FFF7F8FCA3
:100E400006220C212548FFF7F3FC4FF48060009048
:100E500002208DF8040003208DF8050000208DF895
:100E6000060002208DF8070069461C48FFF798FC31
:100E70004FF40060009069461848FFF791FC4FF46A
:100E80008050009069461548FFF78AFC144800F02E
:100E90005FF80020ADF80800ADF80C004FF4827048
:100EA000ADF80A000020ADF80E00ADF810004FF4C8
:100EB0000070ADF812000820ADF814000020ADF865
:100EC00016000720ADF8180002A9054800F07AF8CE
:100ED0000121034800F030F807B000BD00080240CF
:100EE000003C004070B50446C82505E0281EA5F169
:100EF0000101CDB200D170BD02210E4800F054F8BE
:100F00000028F3D021460B4800F05AF8C82505E028
:100F1000281EA5F10101CDB200D1ECE70121054861
:100F200000F042F80028F3D0024800F046F8C0B2C2
:100F3000E1E70000003C004021B1028842F040029D
:100F4000028004E002884FF6BF731A4002807047A7
:100F500010B504461148844208D101218014FFF7DE
:100F600067FE0021A014FFF763FE16E00C488442E0
:100F700008D101210014FFF73BFE00212014FFF7E8
:100F800037FE0AE00748844207D10121C013FFF76A
:100F90002FFE0021E013FFF72BFE10BD00300140B3
:100FA00000380040003C00400246002013890B40FE
:100FB0000BB1012000E0002070470146888970478E
:100FC0008181704710B50022028802F441520B88DB
:100FD0004C8823438C882343CC8823430C892343A8
:100FE0004C8923438C892343CC8923431A430280B1
:100FF000838B4FF2FF74234083830B8A038210BDDF
:1010000070B505460024194800F010F9044654BB99
:101010001748006820F440701549086008460068C9
:1010200040F4007008600846006820F0F80008608E
:101030000846006840EAC50008600846006840F0BD
:10104000020008600846006840F4803008600748E5
:1010500000F0ECF80446012C05D00548006820F0AB
:10106000020003490860204670BD0000400D0300E7
:10107000103C024001463A48814201D200207047AC
:101080003848814201D20120F9E73748814201D234
:101090000220F4E73548814201D20320EFE73448CB
:1010A000814201D20420EAE73248814201D2052080
:1010B000E5E73148814201D20620E0E72F4881422E
:1010C00001D20720DBE72E48814201D20820D6E773
:1010D0002C48814201D20920D1E72B48814201D21C
:1010E0000A20CCE7B1F1016F01D20B20C7E72748F6
:1010F000814201D20C20C2E72548814201D20D2055
:10110000BDE72448814201D20E20B8E7224881423F
:1011100001D20F20B3E72148814201D21020AEE76F
:101120001F48814201D21120A9E71E48814201D205
:101130001220A4E71C48814201D213209FE71B48DC
:10114000814201D214209AE71948814201D2152028
:1011500095E71848814201D2162090E717208EE7C4
:10116000004000080080000800C0000800000108DE
:10117000000002080000040800000608000008083B
:1011800000000A0800000C0800000E0800401008CB
:101190000080100800C010080000110800001208AC
:1011A00000001408000016080000180800001A08C3
:1011B00000001C0800001E0800210E48016801F410
:1011C000803008B10120704701F0100008B1022002
:1011D000F9E701F0200008B10220F4E701F0400037
:1011E00008B10220EFE701F0800008B10220EAE731
:1011F0000020E8E70C3C02400348006840F0004053
:101200000149086070470000103C02400146086830
:1012100070470000024803490860034808607047AF
:1012200023016745043C0240AB89EFCD70B504460D
:1012300000BFFFF7C1FF0546012D00D005E00A20E1
:1012400000F092FD641E002CF3D100BF04B9FF250D
:10125000284670BD2DE9F04704460E4617464FF06C
:1012600000080025A946B4F1006F02D304F0030082
:1012700008B1BDE8F087FFF7CDFF1D48006820F4F6
:1012800080601B490860254604EB870919488542A0
:1012900014D210E02846FFF7B9FF401C50B1284691
:1012A000FFF7E8FE8246FFF7ABFE8046B8F1000F7D
:1012B00001D002E02D1D4D45ECD300BFB8F1000F69
:1012C0000BD107E02046316800F016F800B103E0CA
:1012D000241D361D4C45F5D300BF0548006840F479
:1012E000806003490860FFF787FF00BFC1E7000087
:1012F000003C02400000FF1F70B505460E46FF206F
:10130000FFF794FF0446E4B90F48006820F44070EA
:101310000D4908600846006840F4007008600846FF
:10132000006840F0010008602E60FF20FFF77EFF9C
:101330000446012C05D00448006820F00100024951
:101340000860204670BD0000103C0240704710B598
:101350000446204600F0DAF8002010BD3EB51DA27C
:1013600007CA8DE8070000241DA000F0DFF82B4815
:1013700000F0F6FB0446002C16DD294800F0D6F8F4
:10138000284800F0D3F821466846FFF795FA26A0D2
:1013900000F0CCF8684600F0C9F826A000F0C6F8C6
:1013A00027A000F0C3F814E0601C18B92AA000F0D0
:1013B000BDF80EE0A01C18B937A000F0B7F808E09F
:1013C000E01C18B93BA000F0B1F802E03FA000F02B
:1013D000ADF83EBD2020202020202020202000002D
:1013E00057616974696E6720666F72207468652042
:1013F00066696C6520746F2062652073656E742069
:101400002E2E2E202870726573732027612720747A
:101410006F2061626F7274290A0D00003E00002087
:10142000B01E0008700000200A0D2053697A653A4A
:10143000200000002042797465730D0A000000004E
:101440002D2D2D2D2D2D2D2D2D2D2D2D2D2D2D2DCC
:101450002D2D2D0A000000000A0A0D546865206930
:101460006D6167652073697A6520697320686967B3
:10147000686572207468616E2074686520616C6CA8
:101480006F776564207370616365206D656D6F7241
:1014900079210A0D000000000A0A0D56657269667E
:1014A00069636174696F6E206661696C6564210AA5
:1014B0000D0000000D0A0A41626F727465642062BB
:1014C0007920757365722E0A0D0000000A0D4661C1
:1014D000696C656420746F20726563656976652048
:1014E0007468652066696C65210A0D0010B50446B4
:1014F0002021054800F0B7FA20B103488088207009
:10150000012010BD0020FCE70010014010B504468A
:101510002146054800F01EFB00BF8021024800F074
:10152000A2FA0028F9D010BD0010014010B5044601
:1015300003E02078FFF7EAFF641C20780028F8D148
:1015400010BD00000CB50020019000902D480068EF
:1015500040F480302B49086000BF2A48006800F43E
:10156000003000900198401C0190009818B9019833
:10157000B0F5A06FF1D12348006800F4003010B13D
:101580000120009001E0002000900098012838D14F
:101590001C48083000681B4908310860084600688C
:1015A00040F4004008600846006840F4A05008601D
:1015B0001548091F0860081F006840F08070091F67
:1015C000086000BF0F48006800F000700028F9D0E4
:1015D00040F203700D4908600A480830006820F0A6
:1015E00003000849083108600846006840F002001E
:1015F000086000BF03480830006800F00C000828AD
:10160000F8D10CBD00380240193C4005003C0240B6
:1016100070B502460C4600210025002310783028C2
:1016200043D15078782802D0507858283DD190780E
:1016300008B9002070BD022130E0505C10B9236071
:1016400001252DE0505C412802DB505C46280BDD73
:10165000505C612802DB505C662805DD505C302858
:1016600019DB505C392816DC505C302805DB505CF7
:10167000392802DC505C30380AE0505C412805DB38
:10168000505C462802DC505C373801E0505C57382B
:1016900000EB031301E0002502E0491C0B29CCD329
:1016A00000BF0B2934D3002532E000212AE0505C32
:1016B00010B92360012527E0505C6B2802D0505CF4
:1016C0004B2804D119B19B02236001251CE0505C1A
:1016D0006D2802D0505C4D2804D119B11B05236040
:1016E000012511E0505C302809DB505C392806DC0C
:1016F000505C303803EB830600EB460301E0002525
:1017000002E0491C0B29D2D300BF0B2900D30025CE
:1017100028468FE7042808D14FF0E021096941F0FD
:1017200004014FF0E022116107E04FF0E021096968
:1017300021F004014FF0E0221161704710B512480A
:10174000006840F001001049086000200E4908318F
:1017500008600D4800680D4908400B4908600C48B6
:10176000091D0860081F006820F48020091F086018
:10177000002005490C310860FFF7E4FE4FF00060DF
:101780000449086010BD000000380240FFFFF6FE6B
:101790001030002408ED00E010B500240121880776
:1017A00000F0EEF8012810D10121800700F010F8B8
:1017B00000BF08E0054850F82400401C034941F8E8
:1017C0002400601C84B2042CF4DB10BD60000020F7
:1017D000CA430282704721B1028842F001020280AE
:1017E00004E002884FF6FE731A4002807047000042
:1017F00010B504465548844208D101210846FFF738
:1018000017FA00210120FFF713FA9DE0B4F1804F91
:1018100008D101210846FFF7EBF900210120FFF76D
:10182000E7F991E04A48844208D101210220FFF7FC
:10183000DFF900210220FFF7DBF985E0454884420B
:1018400008D101210420FFF7D3F900210420FFF77C
:10185000CFF979E04048844208D101210820FFF700
:10186000C7F900210820FFF7C3F96DE03B48844227
:1018700008D101211020FFF7BBF900211020FFF74C
:10188000B7F961E03648844208D101212020FFF7F2
:10189000AFF900212020FFF7ABF955E03148844231
:1018A00008D101210220FFF7C3F900210220FFF730
:1018B000BFF949E02C48844209D101210804FFF70F
:1018C000B7F900214FF48030FFF7B2F93CE0274828
:1018D000844209D101214804FFF7AAF900214FF4FD
:1018E0000030FFF7A5F92FE02148844209D10121FA
:1018F0008804FFF79DF900214FF48020FFF798F945
:1019000022E01C48844208D101214020FFF770F9F1
:1019100000214020FFF76CF916E01748844208D1F7
:1019200001218020FFF764F900218020FFF760F992
:101930000AE01248844207D101218015FFF758F9C7
:101940000021A015FFF754F910BD00000000014070
:101950000004004000080040000C0040001000405F
:1019600000140040000401400040014000440140D8
:101970000048014000180040001C004000200040CA
:1019800030B50246002000230024158A05EA010331
:10199000958905EA010413B10CB1012000E0002093
:1019A00030BD1AB183890B43838102E083898B4365
:1019B000838170474162704700220288184B984229
:1019C0000ED0184B98420BD0B0F1804F08D0164B78
:1019D000984205D0154B984202D0154B984204D13D
:1019E0004FF68F731A404B881A43124B984207D018
:1019F000114B984204D04FF6FF431A400B891A430B
:101A000002804B68C3620B880385054B984202D065
:101A1000044B984201D18B7A03860123838270475D
:101A200000000140000401400004004000080040A4
:101A3000000C0040001000400014004001F400724F
:101A4000B2F5007F00D100BFCA430280704721B1C8
:101A5000828942F40052828104E082894DF6FF734C
:101A60001A408281704702460020B1F5007F00D104
:101A700000BF13880B400BB1012000E0002070472D
:101A80002DE9FF4705460E460024A14600BFA046AB
:101A9000B08900B100BF2C8A24F44054F08804437C
:101AA0002C82AC8941F20C608443B08831890843B0
:101AB000718908430443AC81AC8A24F44074B08932
:101AC0000443AC826846FFF7C3F82048854202D041
:101AD0001F48854202D1DDF80C9001E0DDF8089046
:101AE000A88900F4004040B109EBC90000EB0910DF
:101AF00031684900B0FBF1F707E009EBC90000EBE2
:101B0000091031688900B0FBF1F76420B7FBF0F0F1
:101B100004012009642101FB1078A88900F4004029
:101B200040B1322000EBC800B0FBF1F000F007003C
:101B3000044308E0322000EB08106421B0FBF1F010
:101B400000F00F0004432C81BDE8FF870010014026
:101B500000140140C1F308028280704700BFFEE715
:101B60002DE9F04FADF2244D074600200090624869
:101B7000624908604FF0000A4FF000080020019011
:101B800000BF0026B346B94600BF4FF4801202A939
:101B900007A8FFF7E2F810B101287DD180E04FF0EF
:101BA00000080298B0F1FF3F01D070B907E00620AD
:101BB000FFF7CDFB00200DF2244DBDE8F08F06208D
:101BC000FFF7C5FB4FF0010B68E09DF81D00F1B277
:101BD000884203D01520FFF7BAFB5FE0002E48D102
:101BE0009DF81F0000283DD000250DF11F0405E0E1
:101BF00014F8012B28466D1C41490A54207808B17D
:101C0000FF2DF5DD002228466D1C3D490A540025B4
:101C1000641C05E014F8012B28466D1C03A90A5426
:101C20002078202801D0102DF4DB002228466D1CDE
:101C300003A90A54694603A8FFF7EAFC0098B0F527
:101C4000801F08DB1820FFF782FB1820FFF77FFBBF
:101C50004FF0FF30AFE70620FFF779FB4320FFF797
:101C600076FB16E00620FFF772FB4FF0010BDA4619
:101C700014E00DF11F012148029A006800F0B4F849
:101C80001E480068029908441C4908600620FFF7B6
:101C90005EFB761C012000E00BE0019000BF1CE021
:101CA0001820FFF754FB1820FFF751FB6FF00200DC
:101CB00081E70198002801DD08F10108B8F1050F5E
:101CC00007DD1820FFF743FB1820FFF740FB00203B
:101CD00071E74320FFF73BFB00BF00BFBBF1000FE4
:101CE0003FF453AF00BF00BFBAF1000F3FF449AF5C
:101CF00000BF00BF00985EE7000001084000002020
:101D00007000002002E008C8121F08C1002AFAD1A2
:101D100070477047002001E001C1121F002AFBD16B
:101D20007047000010B56FF00400FFF7F3FC0A489D
:101D300000680A49B0FBF1F00949087008460078CC
:101D400000EB4001C1EBC0104FF6FF7101EAC0008B
:101D50000449088010BD00000000002000127A0035
:101D60003A0000203C0000200146114A12784A4304
:101D70004FF0E0235A6100229A611A46126942F03C
:101D800001021A6100BF4FF0E022106900F0010269
:101D90001AB100F48032002AF5D04FF0E022126927
:101DA00022F001024FF0E0231A6100229A6170478D
:101DB0003A00002010B50446206809490840B0F1F7
:101DC000005F09D16068074908602068FEF7E4F900
:101DD00004480068804701E0012010BD00BFFCE717
:101DE0000000F02F580000202DE9F05F07468846DC
:101DF00091460025BB464446AA461DE0E07806060B
:101E0000A07846EA0046607846EA00262078064335
:101E1000241D2846691C8DB20C4941F82060B5F597
:101E2000807F07D100254FF480725846FFF712FAE1
:101E30000BF5806B0AF1040ACA45DFD325B12A46A7
:101E400002495846FFF706FABDE8F09F70010020EE
:101E5000FEF720FAFEF79AFAFEF7E4F9FFF762FFC1
:101E600007A0FFF763FBFEF753FDFEF7CFF90A4823
:101E7000FFF7A0FF09A0FFF759FB00BFFEE7000036
:101E8000486F737420626F6F746C6F616465722049
:101E900056322E300D0A0000000001086E6F2075CA
:101EA0007365722050726F6772616D0D0A0A0000CF
:101EB0000A0A0D2050726F6772616D6D696E67203E
:101EC000436F6D706C6574656420537563636573EF
:101ED0007366756C6C79210A0D2D2D2D2D2D2D2DF0
:101EE0002D2D2D2D2D2D2D2D2D2D2D2D2D2D2D2D22
:101EF0002D2D2D2D2D2D2D2D2D0D0A204E616D6595
:101F00003A200000241F00080000002060000000AC
:101F1000041D0008841F00086000002010750000E8
:101F2000141D0008000E270700000000000000003C
:101F3000010203040607080900000000010203046F
:101F40000102030406070809000000000000000069
:101F50000000000000000000000000000000000081
:101F60000000000000000108000800000000000060
:101F70000000000008000000000000000000000059
:041F80000000F0016C
:040000050800018569
:00000001FF
