:020000040800F2
:10000000F89B012061030008AD5B0008095500085A
:10001000A95B0008B5450008557300080000000002
:10002000000000000000000000000000DD69000882
:10003000054E000800000000A55C0008316E0008B5
:100040007B0300087B0300087B0300087B03000898
:100050007B0300087B030008814E00089D4E0008CA
:100060007B0300087B030008294F00087B0300087E
:100070007B0300087B0300087B0300087B03000868
:100080007B0300087B0300087B0300087B03000858
:100090007B0300087B0300087B030008454F000832
:1000A0007B0300087B0300087B0300087B03000838
:1000B0007B0300087B0300087B0300087B03000828
:1000C0007B0300087B0300087B0300087B03000818
:1000D0007B0300082D6F00087B030008896F000870
:1000E0007B0300087B0300087B0300087B030008F8
:1000F0007B0300087B0300087B0300087B030008E8
:100100007B0300087B0300087B0300087B030008D7
:100110007B0300087B0300087B0300087B030008C7
:100120007B0300087B0300087B0300087B030008B7
:100130007B0300087B0300087B0300087B030008A7
:100140007B0300087B0300087B0300087B03000897
:100150007B0300087B0300087B0300087B03000887
:100160007B0300087B0300087B0300087B03000877
:100170007B0300087B0300087B0300087B03000867
:100180007B03000800F002F800F0C0F80AA090E835
:10019000000C82448344AAF10107DA4501D100F042
:1001A000B5F8AFF2090EBAE80F0013F0010F18BF4F
:1001B000FB1A43F001031847D48C0400F48C0400AC
:1001C0000A444FF0000C10F8013B13F0070408BF7D
:1001D00010F8014B1D1108BF10F8015B641E05D01B
:1001E00010F8016B641E01F8016BF9D113F0080FD0
:1001F0001EBF10F8014BAD1C0C1B09D16D1E58BF62
:1002000001F801CBFAD505E014F8016B01F8016B98
:100210006D1EF9D59142D6D370470000002300240B
:1002200000250026103A28BF78C1FBD8520728BF06
:1002300030C148BF0B6070476E2901F04E807029B5
:1002400000F0A782662900F02FA0652900F02CA0FD
:10025000672900F029A0612900F028A003681B0A83
:1002600028BF41F08001692900F01882642900F05C
:100270001582752900F012826F2901F04E817829CC
:1002800000F07382E92901F0E980E42901F0E680B9
:10029000F52901F0E380EF2901F04B81F82900F006
:1002A00072820368DB0928BF41F08001632901F0F5
:1002B0005880732901F05D80E32901F0BF84F329A0
:1002C00001F0C484002070471FB59DE8030000F0D2
:1002D00029FF00F042FB00F005FF04000020002190
:1002E00034F0E6FA401C60600020002134F0F6FA99
:1002F000E0600020002134F0C5FA206103F06CFBBF
:100300001FBD10B5002003F078F810BD02F0B2F860
:100310001146FFF7D9FF30F0CBF803F065F803B4CE
:10032000FFF7EFFF03BC2CF0D5F800000B49D1F824
:1003300000C04A685CF8043B1068184442F8040B9B
:100340008C4528BFA1F1DC0C8A4228BFA1F1DC0258
:10035000C1F800C04A6020F000407047080B002040
:100360000948804709480047FEE7FEE7FEE7FEE749
:10037000FEE7FEE7FEE7FEE7FEE7FEE70448054985
:10038000054A064B70470000A16E00088501000871
:10039000F80B0020F89B0120F84B0120F84B0120BE
:1003A000704770B5A0FB0140B4F1805170F10000BE
:1003B00024BF002070BD204600F007F805001CBFD8
:1003C000214600F047FC284670BD70B5064600F097
:1003D00085FE056806F10B0020F00704B4429CBFBF
:1003E000002070BD2B466A68BAB11068A04210D3D5
:1003F00004F1080188423CBF5068586007D3516837
:10040000101941601168091B016058601460101DCB
:1004100070BD13465268002AE7D12146284600F0F5
:100420006DFE0028DED170BD70B50446051F00F0DA
:1004300055FE0068002C14BF446870BD002C18BF26
:10044000AC423CBF20466468F8D301680A18AA424F
:1004500018BF456003D12A68054611440160286829
:100460004119A1421CBF6C6070BD61686960216860
:100470000844286070BD53EA020C00F069802DE941
:10048000F04B4FF00006002B1FBFB3FA83F503FAC1
:1004900005F424FA05F65E4012BF1643B2FA82F55F
:1004A00002FA05F4C5F120051EBF22FA05FC44EA54
:1004B0000C04203556EA044C4FEA144418BF641C5F
:1004C0004FF000084FF00009904271EB030C39D354
:1004D000002919BFB1FA81F701FA07F6B0FA80F7DF
:1004E00000FA07F6C7F120071EBF20FA07FC46EA0C
:1004F0000C062037B6FBF4FCA7EB0507103F07F00E
:100500001F0BCBF120060CFA0BFB2CFA06F644BFAE
:10051000B3460026202FA4BF5E464FF0000B5BEAD7
:10052000060C08BF4FF0010B19EB0B09ABFB027C6B
:1005300048EB0608C01B06FB02CC0BFB03CC71EB9F
:100540000C01C1E70B46024641464846BDE8F08B28
:1005500013B54FF000004FF00001AFF30080BDE88D
:100560001C407047B2F120030AD5C2F1200301FA02
:1005700002F120FA03F300FA02F041EA03017047A6
:1005800000FA03F14FF000007047B2F120030AD5E2
:10059000C2F1200320FA02F001FA03F321FA02F17A
:1005A00040EA0300704721FA03F04FF00001704762
:1005B0007CB51D4616460C00009001D02044401E1C
:1005C000074B7B442A4669460190304600F09FFE67
:1005D00005461CB10020694600F0ACFE28467CBDF3
:1005E000790D00000FB4044910B503AA029800F079
:1005F000C5FE10BC5DF814FB2C01002070B504464C
:1006000085690068C10601D5302600E02026C007B4
:1006100007D070BDD4E9012130469047206A401CC4
:1006200020626D1EF6D570BD70B5044685690078F0
:10063000C00707D170BDD4E9012120209047206A6E
:10064000401C20626D1EF6D570BD70B50C46054687
:10065000012A05D02878800600D5EA69002302E047
:10066000012305E05B1C934202D2E05C0028F9D133
:10067000A869E618C01AA861286A184428622846A2
:10068000FFF7BCFF04E0D5E9012114F8010B904706
:10069000B442F8D32846FFF7C7FF70BD2DE9F041FB
:1006A0000646002410687529314616A510D000F0C2
:1006B000A9FD002802DA404213A507E031688A0745
:1006C00001D512A502E0490704D511A5012401E0D6
:1006D00000F0A1FD00210A2206F1240709E0B0FB89
:1006E000F2FCB0FBF2F302FB1C00303078541846E9
:1006F000491C0028F3D123462A463046BDE8F04184
:1007000000F092BD000000002D0000002B00000052
:1007100020000000F0B40D460188090502D5214CE7
:100720007C4402E01F4C7C440E34002100F124067E
:1007300008E002F00F071209E75D42EA03721B09A5
:100740007754491C52EA0307F3D1027800231207B9
:1007500004D5702D06D009B1022311342246F0BC15
:1007600000F062BD01231034F8E770B504460D4671
:100770002146106800F04FFD024629462046BDE89C
:1007800070400023C6E7D21D22F00703D3E90023FF
:10079000C0E70368126843F0200303600823C361C5
:1007A0000023B7E7603A04002DE9F05F894604466C
:1007B0004FF0000ADFF874B1FB44C0F820A02046D7
:1007C000E1688847002874D0252806D0D4E90121A3
:1007D0009047206A401C2062F1E700265F462046D1
:1007E000E16888472028054607DB312D05D27819B6
:1007F00010F8200C08B10643F1E7B00701D526F048
:100800000406C4F81CA00027C4F818A02A2D09D09B
:1008100028462BF058FE38B304EB8708303DC8F863
:10082000185019E059F8041B204604EB8702916127
:10083000E1688847012F054618D1E069002820DAD1
:1008400026F020061DE0D8F8180000EB800005EB2C
:1008500040003038C8F818002046E168884705464F
:100860002BF031FE0028EED1012F0AD02E2D08D119
:100870002046E16888477F1C0546022F46F0200687
:10088000C4DBA069002803DA404246F00106A061FB
:10089000F00701D026F010066C2D0BD0682D09D082
:1008A0004C2D39D06A2D35D0742D35D07A2D33D0DA
:1008B00016E038E0E1682F4620468847B8420546F2
:1008C00009D16C2F26D04FF48060E16806432046A2
:1008D0008847054604E06C2F1AD04FF48070064319
:1008E0000DB3A5F14100192802D8203546F4006661
:1008F0004A462946204626604E46FFF79DFC80B1B9
:1009000001280BD0F61D26F0070000F1080956E774
:100910004020E4E78020D8E70020D6E706F104096C
:100920004DE7284652E7206ABDE8F09FF039040001
:100930000B4910B5A1F17C020A4CC2E937123721EC
:1009400006E000EB104342F82130074B00FB034068
:100950000B1EA1F10101F4DC10BD0120E8E700004D
:10096000A80A0020E119D666CD0D01000EB5054696
:1009700014460E4613A000F017FE284600F014FEA1
:1009800016A000F011FE304600F00EFE15A000F09B
:100990000BFE00218DF80B100A210DF10A008DF8D5
:1009A0000A1008E094FBF1F201FB124294FBF1F40F
:1009B000303200F8012D002CF4DC00F0F5FD00F0E1
:1009C000E1FD00002A2A2A20617373657274696F41
:1009D0006E206661696C65643A2000002C206669AF
:1009E0006C6520002C206C696E65200040EA0103D4
:1009F00010B59B070FD1042A0DD310C808C9121FC8
:100A00009C42F8D020BA19BA884201D9012010BD01
:100A10004FF0FF3010BD1AB1D30703D0521C07E0CE
:100A2000002010BD10F8013B11F8014B1B1B07D132
:100A300010F8013B11F8014B1B1B01D1921EF1D1A3
:100A4000184610BD40EA0103024630B59B0710D19D
:100A50004FF0013400E008C208C91D1B9D4315EA90
:100A6000C41FF8D013F0FF0102F8011B0DD01B0AC0
:100A7000F8E711F8013B002B02F8013B05D011F813
:100A8000013B002B02F8013BF3D130BD10B5431CF4
:100A900002E010F8011B71B18107FAD14FF0013269
:100AA00002C88C1A8C4314EAC211F9D0C01A0A0683
:100AB00003D0C01E10BDC01A10BD0A0401D0801E94
:100AC00010BD0902FCD0401E10BD032A40F2308048
:100AD00010F0030C00F0158011F8013BBCF1020F7F
:100AE000624498BF11F801CB00F8013B38BF11F800
:100AF000013BA2F1040298BF00F801CB38BF00F817
:100B0000013B11F0030300F06B80083AC0F008804D
:100B100051F8043B083A51F804CBA0E80810F5E777
:100B2000121D5CBF51F8043B40F8043BAFF300805A
:100B3000D20724BF11F8013B11F801CB48BF11F8CF
:100B4000012B24BF00F8013B00F801CB48BF00F89F
:100B5000012B7047431A28BF9A427FF6B6AF032A8B
:100B60001044114440F2268010F0030F1EBF11F80C
:100B7000013D521E00F8013D10F0030F7FF4F6AF67
:100B800011F0030300F04685083AC0F00B8051F8DD
:100B9000043D083A51F804CD40F8043D40F804CD36
:100BA000FFF7F3BF121D5CBF51F8043D40F8043D50
:100BB000AFF30080D20724BF11F8013D11F801CD39
:100BC00048BF11F8012C24BF00F8013D00F801CD09
:100BD00048BF00F8012C704701B5FFF776FF01BD53
:100BE00010B5203AC0F00B80B1E81850203AA0E8C8
:100BF0001850B1E81850A0E81850BFF4F5AF5FEAFC
:100C0000027C24BFB1E81850A0E8185044BF18C9AE
:100C100018C0BDE810405FEA827C24BF51F8043B55
:100C200040F8043B08BF7047D20728BF31F8023BA9
:100C300048BF11F8012B28BF20F8023B48BF00F83D
:100C4000012B704702F0FF0343EA032242EA02420B
:100C500000F002B84FF000020429C0F0128010F03A
:100C6000030C00F01B80CCF1040CBCF1020F18BF88
:100C700000F8012BA8BF20F8022BA1EB0C0100F01B
:100C80000DB85FEAC17C24BF00F8012B00F8012BEE
:100C900048BF00F8012B70474FF0000200B5134623
:100CA00094469646203922BFA0E80C50A0E80C508C
:100CB000B1F12001BFF4F7AF090728BFA0E80C503D
:100CC00048BF0CC05DF804EB890028BF40F8042B36
:100CD00008BF704748BF20F8022B11F0804F18BFA3
:100CE00000F8012B704700004FF0013C50F8042B36
:100CF00051F8043B9A4221D1A2EB0C03934313EA2F
:100D0000CC1317D150F8042B51F8043B9A4215D15B
:100D1000A2EB0C03934313EACC130BD150F8042B32
:100D200051F8043B9A4209D1A2EB0C03934313EA16
:100D3000CC13DBD04FF00000704700BFD01A01BACF
:100D4000B1FA81F101F0180122FA01F0CB40C1F1B2
:100D50002001DBB2C0B2C01A2CFA01F3D11A9143C0
:100D600011EAC311E6D17047014900F07DBC0000D3
:100D7000100B002070B5054601B90721541A241D37
:100D8000B4F5B67F09DD286800F05DF9A04204DC07
:100D90002868401C2860012070BD002C05DA2868F6
:100DA000401E286000F04FF90444072094FBF0F047
:100DB000401C70BD2DE9F04F1F4615468B468246FC
:100DC000002689B000F08EF9D0F810800024BBF125
:100DD000000F70D015F8010B10B125280DD10FE0D0
:100DE00024B1641E06A850F82450F3E700213046D1
:100DF0000AF8061009B0BDE8F08F0AF80600C7E04F
:100E0000E94615F8010B592870D023DC49286ED02B
:100E100014DC44286DD008DC2528EED041283ED0D3
:100E2000422849D043282CD156E04528E9D046280D
:100E300069D0472876D0482823D17AE04D380C284D
:100E40001FD2DFE800F0881E061E1E9BA0A9B3B5C6
:100E5000C1CFD6E75A38212813D2DFE800F01112AB
:100E600012121212121A26374550125926127412F3
:100E700012797E128012891296A212B3BDCB110094
:100E8000A8E725200AF80600761C5E4513D26D1EE1
:100E9000A0E7D8F80010BA69D8F8240011E0D8F813
:100EA0000410BA69D8F828000BE0D8F808103A699D
:100EB000D8F82C0005E0B2E0D8F80C103A69D8F860
:100EC000300002FB001101EB0809AAE006A840F877
:100ED0002450D8F818108AE07969642091FBF0F268
:100EE0001332484668A192E0FA6889E08AE022E07D
:100EF000FFE706A840F8245065A5641C6AE7FA6875
:100F000066A1484683E006A840F8245064A5F4E7AB
:100F1000384600F0ADF8642190FBF1F201FB1202BB
:100F200058E0FFE7384600F0A3F802465FA16846A4
:100F30006DE0BA6864E0B8680C210B3090FBF1F208
:100F400001FB120205E0FA6959A14846521C5EE015
:100F50003A694DA1F9E77A6852E00A2116E0B868CB
:100F60000C2802DAD8F81010ADE7D8F81410AAE768
:100F700006A840F82450D8F8341038E006A840F805
:100F800024504DA5B9E73A683AE009210AF806105D
:100F9000761C5E45B2D342E006A840F8245048A52E
:100FA000ABE7BA6902B9072248A1AAE700210CE021
:100FB000786900F26C700890D7E9061208A8FFF76C
:100FC000D9FE06E0BA69EFE70121D7E9062000F073
:100FD0002EF802462CA1AAE706A840F82450D8F81B
:100FE0001C1004E006A840F82450D8F8201001EBAB
:100FF000080582E77969642091FBF0F200FB121288
:1010000021A17EE77A69484628A102F26C7200F0BD
:10101000C9F806E00AF80600761C5E4501D30020F8
:10102000E8E619F8010B00283FF4DFAEF2E7511AA9
:1010300000D5C91D401A01D500207047072190FB3B
:10104000F1F0401C704781070CD1642190FBF1F254
:1010500001FB120151B94FF4C87190FBF1F201FB91
:10106000120018B1002000F26D1070470120FAE75D
:1010700008B5416901F26C710091D0E90612684629
:10108000FFF778FE009808BD252E326400000000AE
:10109000256D2F25642F257900000000253264007E
:1010A00025592D256D2D25640000000025640000C4
:1010B000252E33640000000025483A254D0000002D
:1010C00025483A254D3A255300000000252E31646D
:1010D00000000000704770477047000000487047EC
:1010E000600B002000487047780B002000487047D4
:1010F0008C0B0020704770477047704738B5044626
:101100000A4600206946AFF30080002808BF38BDBA
:1011100002460099204600F019FB012038BD01204D
:1011200001F053B9F8B5AFF30080054600200C4636
:10113000102000BF0646A819A0420DD932466946C4
:101140000020AFF30080070008BF01F03EF90098CF
:10115000A04218BF0546C419FFF7C0FF0560074647
:10116000F01D20F007004619284600F00AF8B442A6
:1011700008BFF8BDA21B31463868BDE8F84000F052
:10118000E5BA00210160C0E90110704710207047E6
:101190000FB4014610B504AA039800F0EFF810BC94
:1011A0005DF814FB0FB41CB5084B06AA7B446946D6
:1011B0000090059800F0ABF804460020694600F066
:1011C000B9F820461CBC5DF814FB00008501000046
:1011D0007CB51D4616460C00009001D02044401EF0
:1011E000074B7B442A4669460190304600F08FF851
:1011F00005461CB10020694600F09CF828467CBDDD
:101200005901000009684A0501D540B27047C90577
:10121000FCD500B2704709684A0501D5C0B27047D5
:10122000C905FCD580B270472DE9F0470D469946B7
:101230009246044600F124080168880604D5E06956
:1012400021F01001216000E00120A84201DD471BD0
:1012500000E00027A1697A1902EB0900081AA061D1
:101260002078C00602D42046FFF7C8F9002608E01F
:10127000D4E901211AF806009047206A401C761C28
:1012800020624E45F4DB2078C0060AD52046FFF7E1
:10129000B5F906E0D4E9012130209047206A401CCE
:1012A0002062381EA7F10107F4DC07E0D4E9012130
:1012B00018F805009047206A401C2062281EA5F1FE
:1012C0000105F3DC2046FFF7AFF92078000602D5D0
:1012D0000220BDE8F0870120FBE711680268006A80
:1012E000530501D508700AE0D30501D5088006E052
:1012F000130603D5C217C1E9000200E0086001200F
:101300007047000001694A1C02610878704700B507
:101310008FB0CDE901310021059105497944CDE92E
:10132000031011466846FFF73FFA0FB000BD0000FA
:10133000E5FFFFFF0A6802F8010B0A607047D1E978
:1013400000239A4202D2531C0B601070704710B5F4
:10135000436913B1AFF3008001E0FFF776F9012094
:1013600010BD127800F124010A7000224A70012297
:10137000EDE711684FF0FF32E9E70000074B70B569
:101380000D467B44FFF7C3FF044628462EF02AFA99
:1013900010B14FF0FF3070BD204670BDF3E5020084
:1013A0002DE9FF5F15468A460446DFF8AC80F84415
:1013B0000027D8E900103E46CDE9001010E03AF8C9
:1013C00016106A4602A800F0BDFF411C07D0217824
:1013D000890603D5E269391891420DD80744761C75
:1013E0002078800602D5E069B84205DDAE42E6DB32
:1013F0003AF816000028E2D1A069C01BA06120467F
:10140000FFF7FCF8D8E90010CDE90010002017E044
:101410003AF818106A4602A800F094FFB0F1FF3FB6
:1014200081460BD000250DF1080B05E0D4E9012120
:101430001BF8050090476D1C4D45F7D308F10100DE
:10144000B0428046E4DB206A384420622046FFF741
:10145000EBF8BDE8FF9F00006A2E04002DE9F04183
:101460008046D21D22F007020025D2E90002F529AC
:1014700015A614D0011E72F1000106DA0023D0EB8C
:10148000030063EB020211A608E0D8F800108B07F6
:1014900001D50FA602E0490701D50EA60125114688
:1014A000002408F1240704E000F06AF930323A55CC
:1014B000641C50EA0102F7D12B46324621464046D1
:1014C000BDE8F041FFF7B0BE000000002D000000B5
:1014D0002B0000002000000030B4002100F12404A3
:1014E00008E002F00705D208303542EA4372DB0813
:1014F0006554491C52EA0305F3D10468002310A285
:10150000250707D5A40600D421B1C46901230DA283
:10151000641EC46130BCFFF787BE10B50446214687
:101520001068FFF778FE02462046BDE81040002311
:10153000D2E7D21D22F00701D1E90023CCE7000059
:1015400000000000300000000FB400B58DB010A9FD
:10155000099000910B904FF0FF300A9000200C9002
:10156000064878440690064878446A4607900F99E2
:1015700009A800F037FD0DB05DF814FB9F0A0000CC
:10158000B70A000010B5002000F018FFFEF7B9FE02
:10159000BDE8104001202AF09DBF10B500F01CFFEF
:1015A000BDE8104000F005BF10B5044900F0B0FEE2
:1015B000BDE8104001482EF019B9000034010020A8
:1015C0000022CBB210F8011B994200D1421E002923
:1015D000F8D110467047421E12F8013F002BFBD194
:1015E00011F8013B002B02F8013BF9D17047431A77
:1015F00028BF9A427FF6F4AA104410F0030F11445A
:101600001EBF11F8013D521E00F8013D10F0030FFE
:101610007FF4F6AF103AC0F00A8010B531E91850E7
:10162000103A20E91850BFF4F9AFBDE81040530755
:1016300024BF31E9081020E9081044BF51F8043DE7
:1016400040F8043D12F0030F08BF7047D20728BFCF
:1016500031F8023D48BF11F8012C28BF20F8023DA7
:1016600048BF00F8012C704770B50C460168002097
:101670004A1C3ED03C22B1FBF2F302FB1313B1FB38
:10168000F2F12360B1FBF2F302FB1313B1FBF2F1B1
:1016900018226360B1FBF2F302FB1313B1FBF2F10A
:1016A00046F2E0320A440721A360B2FBF1F301FBEA
:1016B000132140F2B553B2FBF3F5A161B2FBF3F194
:1016C00003FB15228900B2F5B77F08D39B10521E89
:1016D000B2FBF3F52944B2FBF3F503FB15220F4BE4
:1016E000E261616189077B440CD03B2A0AD3521C1A
:1016F00008E02C212046FFF7CFFA0120E0600AE045
:10170000521A401C195C9142FAD9521CC4E90320B8
:101710004FF0FF302062204670BD00003A2D0400DB
:1017200000F072BE10B52AF0F8FDBDE810402AF0B6
:1017300077BD000000487047580B002010B5FFF738
:10174000D1FC001D10BD00BF693103000346406895
:101750008C46002818BF88423CBF03464068F8D337
:1017600018681844884207D00CF1030020F00700E5
:10177000001D411A521A0146081D0A60FEF754BEA8
:1017800030B5B0F10A024FEA900E71F100034EEA53
:10179000817EB0EB0E0061EB91014FEA101E4EEA24
:1017A000017E10EB0E0041EB11114FEA102E4EEAB4
:1017B000016E10EB0E0041EB11214FEA104E4EEA84
:1017C000014E10EB0E0041EB1141401841F10001B8
:1017D0004FEAD00040EA41704FEAD10110EB80059A
:1017E0004FEA810444EA907444EB01046D1944EB20
:1017F0000404521BA3414FF0000348BF0A3200D536
:1018000030BD401C41F1000130BD70472DE9FF4F54
:101810000C461E464FF0FF378BB0D2E90001DDF8D1
:1018200060800A908A46C1F30A5505B93D460021F9
:1018300008464FF00000BAF1000F00F4400005DA4E
:1018400000EB80004FF4400101EA50004FEA90594C
:10185000B9F1010F00DDB9460A9850EA4A000ED0EE
:1018600044F61050A5F2FF3545432F14B8F1000F90
:101870001ED07542291E1EDDC9F100021CE0B8F120
:10188000010F4FF0000001D0302103E0F24305E0EA
:101890002154401CB042FBDB304600220021215481
:1018A0000B99C1F80880C1E900200FB0BDE8F08FA6
:1018B000BD1B6D1CDEE74A4600DA694206A801F04E
:1018C00027FC06AB93E8070003AB83E8070050460C
:1018D0000A9902F093F88DE80700A0F500501F3830
:1018E00000900398002D0ADD42F21F014A46084489
:1018F000002303A90390684602F03EFB09E0A0F52F
:1019000000504A461F38002303A90390684602F09E
:101910005DFB8DE807000004000C03D04FF0FF30A2
:10192000410800E01046B8F1000F03D000220092F9
:1019300015461EE0751E05D4FFF722FF30326255B2
:101940006D1EF9D5B3460122084302D000227F1C48
:1019500004E02078302801D100227F1E002A099758
:1019600084D01DE0112D07DAFFF70AFF30326255EF
:101970006D1C50EA0102F5D1084302D00098C8B1AD
:101980000EE00021681E05E0235C625C6354225473
:10199000401E491C8142F7DBAB46A81B401E099044
:1019A000002004F80B000B98099AC0F80880C0E9E1
:1019B000002B7AE711264FF0000857E72DE9F04F8A
:1019C00088460446D21D22F0070191B0D1E90001FA
:1019D000CDE90A012AF08DFC02460B98C00F01D018
:1019E0002D2007E02068810701D52B2002E020216F
:1019F00001EAC000032A099001D0072A05DB03464B
:101A00004146204600F0F0FE0BE12078800601D52B
:101A1000E06900E00620B8F1650F814606D0B8F114
:101A2000660F18D0B8F1670F70D131E00020B9F11E
:101A3000110F009001DB112301E009F101030AAA53
:101A400001A90CA8FFF7E2FEDDE90C70002609F100
:101A50000105834647E001204B4600904FF00047C8
:101A60000AAA01A90CA8FFF7D1FEDDE90DB00C9977
:101A70005D46002610B909F101000D18B9EB05000B
:101A800003D4C0F1FF3609F10105A5EB09002BE0F5
:101A9000B9F1010F01DA4FF001090020B9F1110F7E
:101AA0000090484601DD112300E003460AAA01A97F
:101AB0000CA8FFF7ABFEDDE90C704D46002683460F
:101AC000207800070AD4AB4500DA5D4601A8012D55
:101AD00004DD411911F8011C302907D04F4502DA05
:101AE00017F1040F04DA012082460FE06D1EEEE7C5
:101AF000002F02DCED1B3E4403E0781CA84200DD11
:101B00007D1CB81B00F1010A4FF000472078000748
:101B100003D4AA4501DB4FF0FF3A0021B7F1004F93
:101B20000DF143088DF8431024D002202B23002F01
:101B300001DA7F422D230A21021EA0F1010000DC00
:101B40005FB197FBF1FC97FBF1F201FB1C7C1746A0
:101B50000CF1300C08F801CDEEE7A8F1010003709C
:101B60002188090501D5452100E06521A0F1010882
:101B700000F8011C09980FA9A1EB0807FF1D00B18F
:101B80000120411901EBEA70A1693844081A401E8E
:101B9000A0612078C00602D42046FEF72FFD0998E8
:101BA00028B1D4E901219047206A401C20622078A6
:101BB000C00622D52046FEF721FD1EE0002E04DBE4
:101BC000B34502DD01A8805D00E03020D4E90121A9
:101BD0009047206A401C2062761CAAF101005FEA4F
:101BE000000A0AD1FFF77EFAC0680168405CD4E9B8
:101BF00001219047206A401C2062281EA5F10105A2
:101C0000DCDC07E0D4E9012118F8010B9047206AD9
:101C1000401C2062381EA7F10107F3DC2046FEF7C6
:101C200003FD032011B041E610B5436913B1AFF3D2
:101C3000008001E0FFF7B4FB012010BD128800F125
:101C4000240182840022C2840122EDE711684FF052
:101C5000FF32E9E72DE9FF4F1C4691464FF0FF3573
:101C600081B000218A468846D4E90167A1690298BB
:101C70006D1C8847216A834688470028F6D1BBF14E
:101C8000FF3F0CD0002F26F4C0661ADD700615D574
:101C9000BBF12B0F0AD0BBF12D0F0FD104E04FF099
:101CA000FF3005B0BDE8F08F46F48066A169029868
:101CB0006D1C88477F1E8346002F02DDBBF1300F6D
:101CC00003D0B9F1000F2AD025E0A1696D1C02985C
:101CD0007F1E46F400768847002F834605DDBBF162
:101CE000780F06D0BBF1580F03D0B9F1000F10D018
:101CF00011E0B9F1000F02D0B9F1100F0BD1A169B9
:101D00006D1C02987F1E26F40076884783461020BB
:101D100000E0082081464FEAE970009017E00A20B1
:101D2000F8E74346AAFB0928DDF800C07F1E03FB45
:101D3000098046F4007605F101050AFB0C0112EB5F
:101D40000B0A029841EBEB78A16988478346002F84
:101D500006DD4946584600F087FD5FEA000BE0D5F6
:101D6000E16902988847B00502D46FF0010098E756
:101D7000F00718D1700610D55146700505D500231F
:101D8000D1EB030163EB080200E042462068031D2B
:101D900023600068C0E9001205E02068011D216091
:101DA0000068C0E900A828467BE72DE9FF5F1D46D3
:101DB0004FF0FF3B91464FF000085F46D5E90146E2
:101DC000A96901987F1C8847296A824688470028AC
:101DD000F6D1BAF1FF3F0CD0002E24F4C06419DD17
:101DE000600614D5BAF12B0F09D0BAF12D0F0ED120
:101DF00003E0584604B0BDE8F09F44F48064A9694C
:101E000001987F1C8847761E8246002E02DDBAF1BB
:101E1000300F03D0B9F1000F26D032E0A969761E49
:101E200001987F1C44F400748847002E824605DD2B
:101E3000BAF1780F06D0BAF1580F03D0B9F1000FFC
:101E400010D01EE0B9F1000F02D0B9F1100F18D177
:101E5000A969761E01987F1C24F400748847824685
:101E6000102002E0082000E00A20814609E0A9696C
:101E700008FB0908761E01987F1C44F4007488470B
:101E80008246002E05DD4946504600F0EDFC002854
:101E9000EDDAE96901988847A00502D46FF00100E6
:101EA000A8E7E00725D1600613D5600502D5C8F183
:101EB000000000E0404629680A1D2A6009682205E2
:101EC00001D5087015E0220701D5088011E00860EF
:101ED0000FE02868011D29600068210502D580F8FF
:101EE000008006E0210702D5A0F8008001E0C0F8DC
:101EF000008038467EE72DE9FF5F4FF000089946E5
:101F0000144646469169D2E901A7DDF838B0019838
:101F10008847054659EA0B0005D009E0A1690198F8
:101F2000761C88470546216A284688470028F5D14F
:101F3000681C03D05FEACA7005D015E04FF0FF308F
:101F400004B0BDE8F09F2068011D2160D0F800803A
:101F50000AE05FEACA7001D108F8015BA169761C4A
:101F600001987F1E88470546002F1ADD681C18D08F
:101F7000B9F1000F0DD0E81705EBD060421120F049
:101F80001F0059F822102A1A012090400142E0D186
:101F900007E0BBF1000FDCD12846216A8847002802
:101FA000D7D0E16901988847BBF1000F07D1002E17
:101FB00005DD5FEACA7002D1002188F80010A06830
:101FC000B84203DDBBF1000F03D017B16FF0010081
:101FD000B6E73046B4E700000268114413780160A8
:101FE00018467047D16005497944516104497944E4
:101FF000116200211161114600F044BCEDFFFFFFAA
:10200000E7040000426842B1016811F8013B23B1C6
:10201000521EC0E90012184670470121C160881E97
:10202000704742685AB1C368016843B983688B42FC
:1020300005D0491E521CC0E90012002070474FF025
:10204000FF3070472DE9FF4F4FF000089A461446C5
:10205000C146464683B0D2E901B7CDF80080CDF83D
:102060000480916904988847109905465AEA01004E
:1020700005D009E0A1690498761C88470546216AC5
:10208000284688470028F5D1681C03D05FEACB704A
:1020900005D02AE04FF0FF3007B0BDE8F08F206890
:1020A000011D2160D0F800801FE002A86A46E9B255
:1020B00001F07CF9411C07D0801C09D04FF00009C9
:1020C0005FEACB7007D00AE0E169049888473EE0F8
:1020D0004FF0010904E0BDF8081028F8021B7F1E2C
:1020E000A1690498761C88470546002F1ADD681CF4
:1020F00018D0BAF1000F0DD0E81705EBD0604211EF
:1021000020F01F005AF822102A1A012090400142A4
:10211000CBD107E010980028C7D12846216A88470C
:102120000028C2D0E16904988847B9F1000F0ED1A8
:10213000109830B9002E04DD5FEACB7001D1A8F809
:102140000000A068B84202DD109818B117B16FF016
:102150000100A1E730469FE72DE9FF4F4FF000084F
:102160009B461446454683B0D2E90196CDF80080DF
:10217000CDF804809169DDF848A0049888470746A7
:102180005BEA0A0005D009E0A16904986D1C884744
:102190000746216A384688470028F5D1781C03D0C5
:1021A0005FEAC97005D01BE04FF0FF3007B0BDE813
:1021B000F08F2068011D2160D0F8008010E05FEAF8
:1021C000C97007D16A464046B9B200F0BBF8411C5D
:1021D00031D08044A1696D1C0498761E884707465B
:1021E000002E14DD781C12D0BBF1000007D03B4656
:1021F000DDE9101200F07CFF0028E0D107E0BAF121
:10220000000FDCD13846216A88470028D7D0E16921
:1022100004988847BAF1000F06D1002D04DD5FEA6B
:10222000C97001D188F80000A068B04203DDBAF19E
:10223000000F03D016B16FF00100B7E72846B5E7ED
:102240002DE9FF5F9B46144600273D469169D2E980
:102250000196DDF840A00198884780465BEA0A00B5
:1022600005D009E0A16901986D1C88478046216A64
:10227000404688470028F5D1B8F1FF3F03D05FEA18
:10228000C97005D014E04FF0FF3004B0BDE8F09FF6
:102290002068011D216007680AE05FEAC97001D16A
:1022A00027F8028BA1696D1C0198761E884780462D
:1022B000002E15DDB8F1FF3F12D0BBF1000007D0B2
:1022C0004346DDE90E1200F013FF0028E5D107E0D8
:1022D000BAF1000FE1D14046216A88470028DCD0DE
:1022E000E16901988847BAF1000F05D1002D03DD9F
:1022F0005FEAC97000D13880A068B04203DDBAF14E
:10230000000F03D016B16FF00100BEE72846BCE70E
:1023100070B50D46044604E029462DF02DFB401C07
:1023200004D014F8010B0028F6D170BD4FF0FF3037
:1023300070BD00000A460146014800F0A8BF000039
:10234000B80B002070B516460C460546FFF7F6F9A7
:10235000036893F80101012806D0FF2C0FD8185DFF
:1023600068B101202C7070BDD3F8070132462146B8
:1023700003F2071303442846BDE8704018474FF0A6
:10238000FF3070BD2DE9F041074615460E4610207E
:10239000FEF71BF804000AD06760C4E9026500F08C
:1023A0008FF80168216004600020BDE8F081012001
:1023B000FBE7002801D02AF08DB8704710B501F076
:1023C00057F8BDE81040FFF7F4BF10B501F068F80A
:1023D000BDE81040FFF7EDBF10B5002102A001F0ED
:1023E0002DF8012010BD00005349475056464E3A83
:1023F0002050757265207669727475616C20666E06
:102400002063616C6C65640010B500F00EF8016922
:1024100019B100220261884701E080688047FFF718
:10242000B1F8000010B5FFF7ADF870B500F04CF84A
:1024300004680546A4B92020FDF7C7FF040011D0A9
:10244000094900202C60C4E900010849A1602073FB
:10245000206160610649A06109B101F05BF8E061AB
:10246000204670BDFFF78EF800000000252400080C
:10247000000000007546FFF75DF9AE4605006946AD
:10248000534620F00700854618B020B5FDF776FFCB
:10249000BDE820404FF000064FF000074FF0000865
:1024A0004FF0000B21F00701AC46ACE8C009ACE8E6
:1024B000C009ACE8C009ACE8C0098D46704700000F
:1024C00000487047900B002000487047940B002094
:1024D00000487047580B002010B50446FFF72EF94E
:1024E0000068005D00F0010010BD00002DE9F04F14
:1024F00004460D46D21D22F0070089B0D0E90097AE
:102500004846394629F0F5FE0246F80F01D02D2342
:1025100007E02068810701D52B2302E0202101EA92
:10252000C0038DF820300BB1012000E00020032A09
:10253000824601D0072A04DB2946204600F054F9E0
:102540003FE12078800601D40D2500E0E569C7F35E
:102550000A560D2D49DA00214FEA175B08464FF065
:102560000000002F00F4400007DA00EB80004FF479
:10257000400100EBD07001EA60008115012901DD06
:102580004FF0FF3100224FEA850CBCF1180F06D343
:102590001346ACF118004FF08052C24003E04FF4F4
:1025A000801323FA0CF30CF10C0CBCF1200F04D3B4
:1025B000ACF1200C09FA0CF001E007FA0CF000294C
:1025C0004FF0004801DD18B90FE00ED140450CD3A3
:1025D00019EB02095F4121B9404502D19F4329EA25
:1025E0000209BBEB175F00D0761C2088000502D5DE
:1025F0007B48784402E07A487844193808AA3023A6
:1026000002F80A30037C0AF10101002E0AF1020AE5
:1026100053546A4602DC4FF0300101E04FF03101C3
:102620004FF001088DF8001002D0A6F2FF3603E04B
:1026300059EA470100D06B4E002D02DC21780907D2
:1026400004D54FF002082E218DF80110C446002158
:102650000BE0C7F303433F01C35C491C6D1E02F846
:102660000830052908F1010801DA002DF1DC00210C
:102670000CE000EB1973491C1B786D1E082902F849
:1026800008304FEA091908F1010801DA002DF0DCE1
:1026900021688B0602D516E0A8F10108E04505DDAA
:1026A00002EB080313F8013C302BF5D0B8F1000F12
:1026B00009DD02EB080313F8013C2E2B03D10907B7
:1026C00001D4A8F10108002D05DD3E2102F8081013
:1026D0006D1E08F10108407C002E02F8080008F188
:1026E000010804DA2D20764202F8080002E02B20CF
:1026F00002F808000A214FF47A70864208F10108B6
:102700000BDB96FBF0F3303302F8083096FBF0F366
:1027100008F1010800FB136601E0642E0CDB642065
:1027200096FBF0F3303302F8083096FBF0F308F133
:10273000010800FB136601E00A2E06DB96FBF1F0B0
:10274000303002F8080008F1010896FBF1F001FBB7
:102750001060303002F80800A16908F1010808EBA8
:10276000050202EB0A00081AA0612078C00602D414
:102770002046FDF743FF216A08AE01EB0A00206204
:1027800004E0D4E9012116F8010B9047BAF1010ADF
:10279000F7D22078C00602D52046FDF72FFF6E46FF
:1027A00009E016F8010B3E280FD0D4E9012190472B
:1027B000206A401C2062B8F10108F2D22046FDF7E1
:1027C00033FF09B00320BDE8F08F206A284420625F
:1027D00003E0D4E90121302090476D1EEBD3F8E7E8
:1027E0004D1E040002FCFFFF2DE9F0411F46044688
:1027F00003260168072A01F4006004DB08B116A56E
:1028000005E016A503E008B115A500E015A521F027
:1028100010002060A069C01EA0610FB1401EA06121
:102820002046FDF7EBFE4FB1D4E901213846904731
:10283000206A401C2062C01C206206E0206AFAE781
:10284000D4E9012115F8010B9047761EF8D22046F5
:10285000FDF7EAFEBDE8F0814E414E006E616E006C
:10286000494E4600696E66003A2800D2303820F0A2
:102870002002412A01D3A2F13700884201D34FF050
:10288000FF3070472DE9F34F4FF0000A0C465646D3
:102890008DB001200C9001F10C000B9062690B9837
:1028A00001219047051E2DD0252D2CD0216A884767
:1028B000C0B162690B9801219047216A88470028BE
:1028C000F7D16269411E0B98904700E0761CA16920
:1028D0000D988847216A88470028F7D1E1690D984B
:1028E0008847DBE7A1690D988847A842074601D1D0
:1028F000761CD3E7E1690D9888477F1C02D1BAF1B5
:10290000000F6FD06BE162690B9800273D46394696
:1029100090472A2804D162690B980121904701252C
:10292000DFF8D08262690B9801219047A0F1300155
:102930000A290AD24745E5DC07EB870100EB41078E
:10294000303FDFD445F01005ECE7E90601D46FF025
:1029500000476C280AD04C2814D0682815D06A2863
:102960000DD074281CD07A281AD01DE062690B980B
:10297000012190476C2802D045F0040514E045F091
:1029800002050DE045F020050AE062690B9801217F
:102990009047682802D045F0080505E045F4006539
:1029A00062690B9801219047C4E9015765283DD021
:1029B00019DC58287AD00CDC452837D004DC2528CF
:1029C00026D041289ED131E046282FD0472899D1E2
:1029D0002CE05B2877D0612828D063287CD064283D
:1029E00023D15AE0F6E06F2848D008DC66281DD0D5
:1029F00067281BD0692821D06E2816D127E07028BF
:102A000045D0732868D0752847D078280DD14DE07F
:102A1000A1690D988847252805463FF469AFE1690B
:102A20000D9888476D1C3FF46AAFD8E00D99234696
:102A30006A466FF001003DF09BFCC5E045F04000A8
:102A400023464FF000026060A80736D43EE0E80756
:102A50007FF447AF2068011D21600068290501D57A
:102A600006701BE7290701D5068017E7A90703D5DC
:102A7000F117C0E9006111E706600FE745F040007B
:102A800023464FF008026060A80716D41EE040F607
:102A90000E0125EA0100606016E045F04000234683
:102AA0004FF00A026060A80707D40FE045F040002D
:102AB0006060A80708D5234610220D996FF0010029
:102AC000FFF7C8F880E007E0102223460D996FF069
:102AD0000100FFF76AF977E04FF0000963284F46DD
:102AE000C8464B46CB4602D05B2806D038E0E80605
:102AF00001D40120A060012732E06269D4F80CB053
:102B00000B98012190475E2807D14FF001094946F3
:102B10006269D4F80CB00B989047216939B900214B
:102B20000A4603AB43F82120491C0829FADBD8B335
:102B3000216949B308F1010862690B9801219047A6
:102B40005D28F4D1B9F1000F09D0002003A951F894
:102B50002020D24341F82020401C0828F7DB03AB9B
:102B60002069002820794FEA40701ED05B4622463B
:102B7000CDF80080CDE901970D9900286FF0010094
:102B800020DAFFF75DFB1FE0C11703AA00EBD1615C
:102B90004B1121F01F0102EB8302411A136801203F
:102BA000884003431360C7E719E00D9922460028C7
:102BB0006FF00100009702DAFFF744FA04E0FFF734
:102BC0009AF901E0FFF7C8FA00280ADA401C06D19A
:102BD0000C9820B14FF0FF300FB0BDE8F08F504699
:102BE000FAE7E90701D10AF1010A064400200C9036
:102BF00054E60000CCCCCC0C2DE9FF4F06468BB040
:102C00000878FF2806D0491C2D2805D000244FF055
:102C1000000908E000200CE00124F8E709EB890333
:102C2000491C00EB43090878FF28F7D114B1C9F11A
:102C300000008146107800252C46AA4629462D28FA
:102C400001D02B2804D1521C2D2813D000208246FD
:102C50008B461078FF280FD04FF0000C0A21521C31
:102C6000A5FB017804FB018105FB0C11C5194BEB99
:102C70000104EEE70120EAE7002108464FF00000DA
:102C8000BAF1000F02D000EB80004008C0F381577A
:102C9000012F01DD4FF0FF370E9955EA040009EBD3
:102CA00001080BD04FF0020918F5FA7F16DA4FEA47
:102CB000CA70002F706008DD012007E04FEACA707B
:102CC000C6E900B00FB0BDE8F08F00203060FFF71C
:102CD000FFFBC0F800901821084616E0B8F5FA7F0F
:102CE00018DD002F02DAF748784401E0F64878440E
:102CF000D0E90010C6E9001040EACA707060FFF722
:102D0000E7FBC0F80090142108460FB0BDE8F04F73
:102D10003DF0C7BA002108464FF00000B8F10001AD
:102D2000099002DAC7F1000200E03A4601DAC8F180
:102D3000000106A800F0ECF906AB93E8070003AB2E
:102D400083E8070044F23E005BEA04010090584625
:102D500004D144F21E012C465D460091210C090469
:102D6000014306D10099240444EA15442D04103986
:102D7000009104F07F41014306D10099240244EA06
:102D800015642D020839009104F07041014306D109
:102D90000099240144EA15742D01091F009104F0E3
:102DA0004041014306D10099A40044EA9574AD0066
:102DB000891E009104F00041084304D100986D1968
:102DC0006441401E00904FF001033A466846B8F156
:102DD000000FCDE9014503A902DD01F00CF901E086
:102DE00001F0DFF8BAF1000F04460D4601D084F07F
:102DF0000044002108464FF00000099940F2FF7797
:102E0000484010F00C0F07D124F00040284303D0B5
:102E1000C4F30A50B84212D1FFF75AFBC0F8009031
:102E2000C4F30A50B8420AD1A8487844D0E9001047
:102E3000C6E9001004F000410843706042E7C6E9AB
:102E400000543FE72DE9FF4F1F464FF0000A4FF0B7
:102E5000FF38454691B0D7E90146CDF83CA0FEF7D2
:102E600041F9C0680168405C1090B96912986D1C06
:102E70008847396A814688470028F6D1B9F1FF3F73
:102E80000AD0002E24F4D06411DDB9F12B0F08D044
:102E9000B9F12D0F0BD102E0404615B013E744F411
:102EA0008064B96912986D1C8847761E814660055A
:102EB00004A901D52D2000E02B20002E01F1010BEB
:102EC0000DF130088DF810003FDDB9F1690F08D021
:102ED000B9F1490F05D0B9F16E0F02D0B9F14E0F1B
:102EE0001CD13B4601A8009580E85002DDE9121292
:102EF0006FF002003DF040FAC11CCED10EE0B9697E
:102F000012986D1C884781461398761E44F400740D
:102F100005600F98401C002E0F9016DDB9F1300FA0
:102F2000EDD0B9F1780F02D0B9F1580F0DD10F984B
:102F300001280AD13B46CDE90054DDE91212001FF9
:102F400002963DF017FAC11CA7D1109989453ED1D0
:102F500044F0800406E01399681CAAF1010A44F4C5
:102F600000740860B9696D1C1298761E8847302875
:102F70008146F0D02BE01099894505D1200603D475
:102F8000761E44F0800418E0484629F09CFA08B305
:102F9000761E0DF123018B4544F4007408D2A9F18B
:102FA00030000BF8010B200607D5AAF1010003E061
:102FB000200602D40AF101008246A00502D5139929
:102FC000681C0860B96912986D1C88478146002EFC
:102FD000D1DC53E0002E51DDB9F1650F02D0B9F11B
:102FE000450F4BD1A00549D5B9696D1C1298761EC5
:102FF00024F440748847002E81460CDD2B2804D031
:10300000B9F12D0F07D144F48074B96912986D1C81
:103010008847761E8146E00501D52D2100E02B2151
:1030200008F8011BCDF8008021E0761E0DF1390172
:10303000884544F400740CD2A9F1300010F0FF0070
:1030400088F8000002D10099884509D908F10108E3
:1030500006E0E00501D51E4801E042F20F7082460D
:10306000B96912986D1C8847814613980560002E37
:1030700004DD484629F027FA0028D6D1F9691298CC
:103080008847FF2053468BF8000088F80000002096
:103090000A900B9004AA0CA90AA8FFF7ADFDA005A1
:1030A00002D46FF00100F8E614F0240F12D0E0070C
:1030B0001CD13868DDE90A12031D3B600068C0E9D5
:1030C000001213E0C8610400BA6104007E600400CD
:1030D000F1D8FFFF0AA9684629F058F9E00705D1A1
:1030E0003868009A011D3960006802602846D4E6FD
:1030F00010B508E030F8024B9C4204D10AB1002020
:1031000010BD012010BD491EF4D2104610BD0000B4
:103110002DE9F047814616468AB0354878440DC8F7
:103120008DE80D0032487844801C03AC0DC884E85B
:103130000D0041F69B300844372190FBF1F290FBE3
:10314000F1F5A5F1800501FB12041B3C02D5644298
:10315000012000E00020DFF898A080460027FA4414
:10316000AAF1BE0A0EE0E0070AD03246684607EB35
:10317000470101230AEB810100F028FF8DE80700D9
:1031800064107F1C002CEED1194F7F44AE3F19E034
:10319000E80715D007EB04100DF1180A90E80E00AF
:1031A0008AE80E00C068F04201D1981908903246B2
:1031B000012306A903A800F009FF03AB83E8070079
:1031C0006D10641C002DE3D14FF0010332466946B7
:1031D000B8F1000F03A802D000F0CEFE01E000F02D
:1031E000F5FEC9E90001C9F808200AB0BDE8F0877A
:1031F000B413040070B50646484231EA00000FD00F
:103200002A20741C00253070FDF76CFF0346002255
:1032100053F82500010F000109292BD957312AE065
:10322000042913D004DC012908D0022904D109E0C3
:1032300008290FD0102911D0002070BDFDF752FFD2
:1032400000680EE0FDF74EFF40680AE0FDF74AFF18
:10325000806806E0FDF746FFC06802E0FDF742FF28
:10326000006928B120F0030050F8041C084470BD28
:103270004CA070BD3031521C082A04F8011BC9D380
:103280006D1C052DC3DB00202070304670BD09B1D8
:103290004B0901D00020704722B113782A2B02D0AD
:1032A00000F034B8A6E7AFF300802DE9F0410F46F7
:1032B0008046541C00250026314614F8010BA0F16D
:1032C0003002092A03D9A0F16103052B16D8392849
:1032D00001D8104600E05738491C082940EA061674
:1032E000EBD30120A840384203D0FDF7FBFE40F8A5
:1032F00025606D1C052DDEDB207810B10020BDE8B7
:10330000F08139464046BDE8F04173E72DE9F041D0
:103310000C460646154688070AD5114622487844C9
:1033200031F0C6FA071EEAD0FDF7DCFE7F1C4760CD
:10333000E0070AD029461C4878441A38AFF30080C9
:10334000071EDCD0FDF7CEFE076060070AD52946D0
:10335000154878443438AFF30080071ECFD0FDF70E
:10336000C1FE876020070AD529460F4878444E38A9
:1033700031F0B4FA071EC2D0FDF7B4FEC760E00614
:103380000AD5294608487844683831F07BFA051E8A
:10339000B5D0FDF7A7FE056121463046BDE8F041F6
:1033A00028E7ACE743000000525E040070B5164603
:1033B0000C460546FEF7C2F9036893F8010101289F
:1033C00004D0185D68B101202C8070BDD3F80301D2
:1033D0003246214603F2031303442846BDE87040F9
:1033E00018474FF0FF3070BD10B50446AFF30080B2
:1033F0002046BDE81040FCF792BF2DE9F04106469B
:10340000FFF75EF88046454613E016B1E068B0422B
:103410000ED120682860D4E90101D8F800708847EF
:103420002046FDF701F8D8F80000B842EBD100E0E3
:1034300025462C68002CE8D1BDE8F08170B5054622
:103440000C460A2000E06D1C29F050F835B12878B0
:103450000028F8D102E0641C29F048F814B1207863
:103460000028F8D1BDE870400A2029F03FB80000DC
:1034700010B5002102A0FFF7E1FF012010BD000000
:10348000534947414252543A2041626E6F726D6116
:103490006C207465726D696E6174696F6E000000F6
:1034A00010B5012805D0002103A0FFF7C7FF0120B8
:1034B00010BD09A1F8E7000053494752544D454D4E
:1034C0003A204F7574206F662068656170206D65C5
:1034D0006D6F7279000000003A2048656170206DC0
:1034E000656D6F727920636F7272757074656400B8
:1034F00000DE2DE9F04117460E46054633B107FBC5
:103500000354E41B2046B047A542FAD1A5F10800B8
:10351000BDE8F08110B58820FCF757FF002801D0E6
:103520000021017010BD802902D808B1017809B1CD
:1035300000207047012100F8081B704718B100F106
:103540000802914201D000207047002101707047AD
:1035500010B5FEF7BDFF006810BD10B50446FEF7BC
:10356000B7FF046010BD00002DE9FF4F1F464FF06C
:103570003C0987B04FF00042DDE9141001F1010869
:10358000DDF858A002EA40500390002005908346E1
:10359000054604460490B969461E08988847AAF172
:1035A000010A0290BAF1000F3BDD02982E2815D0D7
:1035B0001021FFF759F900282EDB4FF0010B059978
:1035C000014317D0B9F1000F0BDB4A46C117FCF7D6
:1035D000C9FF05430C43A9F1040905E0012004904B
:1035E0000BE008B145F0010501200590049820B9D1
:1035F000361D02E0049800B1361FB969089808F139
:1036000001088847BBF1000FAAF1010A0290C9D056
:103610000999C1F80080C5E70298702808D05028A1
:1036200006D0F96908988847BBF1000F14D04FE025
:10363000002002900120BBF1000F049009D0B9696D
:10364000089808F101088847AAF10109B9F1000FAB
:1036500007DCF969089888476FF001000BB0BDE8F6
:10366000F08F2B2804D02D280CD14FF0FF30049080
:10367000B969089808F101088847A9F10109B9F169
:10368000000FE6DD411CE4D00A21FFF7EDF8002829
:10369000DFDB029908F1010801EB810100EB410039
:1036A0000290B969089888470A21FFF7DDF8099A5E
:1036B000A9F10109B9F1000FC2F8008001DD00286D
:1036C000E7DAF969089888470499029800FB0166CF
:1036D00055EA040004D004F04041090002D006E09D
:1036E000039898E0A40044EA9574AD00B61E04F077
:1036F0000041080002D16D196441761E159810F042
:10370000240F03D04FF00B095C4803E04FF0280969
:103710006FF07D008246564507DAAAEB0601894420
:10372000B9F1410F01DD4FF0410901200021A9F15C
:103730000102FCF717FF024628400B4621400843D0
:1037400001D0012100E00021501E029143F1FF3120
:1037500028402140084301D0012000E000200299C8
:10376000834651EA0B014FD0002108464FF000007C
:10377000039900F4400039B100EB80004FF44001A0
:1037800000EBD07001EA60008015012802DD4FF0E7
:10379000FF3000E013D0401C36D0029860B3BBF17C
:1037A000000F0CD14A4601200021FCF7DBFE284027
:1037B0002140084301D0012000E00020E0B10120B9
:1037C0004A460021FCF7CEFE034640190A466141F5
:1037D0002D1A8C4111D3B9F1400F09DD159810F065
:1037E000240F02D0AAF1340603E0AAF1170600E084
:1037F000761C00254FF0004406E05B1E42F1FF32CC
:1038000020EA030521EA0204CAF10100B04206DA07
:103810001B49039808430190002000900EE0039A92
:10382000C4F3D321E80A0A43164940EA44500A4344
:103830003146CDE90002684628F03AFE159810F0AE
:10384000240F0BD01598C00715D13868DDE9001298
:10385000031D3B600068C0E900120CE002A8694645
:1038600028F094FD1598C00705D13868029A011D0B
:103870003960006802604046F0E6000002FCFFFF8D
:103880000000F07F0000F03F2DE9FF4F92461D46FB
:1038900085B04FF00041DDE9124BDDE914727F1E67
:1038A00001EA4B50414940F0FF4940EA010800213C
:1038B00022F020004928049102D04E2828D04CE064
:1038C0003BA0012607C88DE80700A9690698641C7B
:1038D00088477F1E014606D41DF8060018B121F066
:1038E000200181420BD0E96906988847032E34D025
:1038F000082E32D06FF0010009B0BDE8F08F761CC1
:10390000032E01D0082EE0D1601CCAF80000DCE7CD
:10391000A9690698641C88477F1E2AD420F02000DD
:10392000412826D1A9690698641C88477F1E20D4A7
:1039300020F020004E281CD1A9690698641C8847F5
:103940007F1E48F4002849F48009CAF8004001D4D9
:10395000282806D0E969069888475FEACB7012D01C
:1039600022E0A9690698641C88477F1E01D40028BC
:1039700003DAE96906988847BCE72928F1D1641C75
:10398000CAF80040E9E71BF0240F07D02868049923
:10399000031D2B600068C0E9001805E02868021DBF
:1039A0002A600068C0F800902046A5E70000F07F7C
:1039B000494E46494E495459000000002DE9F04156
:1039C00016461F460C46851B02E02846B847AD1B2D
:1039D000641EFAD2BDE8F08170B5064C7C44064DF9
:1039E0007D4403E0206820448047241DAC42F9D187
:1039F00070BD000098570400A05704005FEA400C17
:103A000008BF91F0000F4FEA8C234FEAC12243EA2E
:103A100051514FEA1C5018BF00F5F0404FEA3000FA
:103A200018BF41F000415FEA6C5C00F02980BCF1F6
:103A3000FF3F08BF40F080407047130C06BF1204E0
:103A40004FF0100C4FF0000C130E04BF12020CF1DB
:103A5000080C130F04BF12010CF1040C930F04BFE8
:103A600092000CF1020CD30F04BF52000CF1010CB8
:103A700011464FF00002A0F11F00A0EB0C007047B0
:103A800011F0004F08BF704731F000413FF4D5AF4F
:103A90000B0C06BF09044FF0100C4FF0000C0B0E7E
:103AA00004BF09020CF1080C0B0F04BF09010CF153
:103AB000040C8B0F04BF89000CF1020CCB0F04BF68
:103AC00049000CF1010CCCF12003A0EB0C0022FA10
:103AD00003F302FA0CF241EA030100F1010070471E
:103AE00020F07F4C80EA030023F07F47ACEB070314
:103AF00003F57C5300F0004003F1FF032DE98049FA
:103B00004FEA154B09B44FEA144325EA0B4E24EA59
:103B100003480FF2042606EB132749083E785FEAB4
:103B2000320203FB0667C7F5000707FB06F64FEAFC
:103B300054374FEAD64606F1020607FB066CCCF175
:103B4000005C4FEA1C472CEA074C07FB06F40CFB11
:103B500006F504EB15464FEA961634BF00204FF0E9
:103B600000404FEAD13706FB07FC4FEA1C4C0CFB28
:103B70000BF7D21B03FB0CF761EB07010CFB0EF7F5
:103B8000B0EB074072EB17420CFB08F734BFA2EB17
:103B90000742B2EB074261EB17414FEA0C444FEA90
:103BA000910706FB07FC4FEA1C4C0CFB0BF7B0EB34
:103BB000C74072EB573203FB0CF734BFA2EBC7428E
:103BC000B2EBC74261EB57310CFB0EF7B0EBC7000D
:103BD00072EB57720CFB08F734BFA2EBC702B2EBD3
:103BE000C70261EB5771039F4FEA816141EA92116D
:103BF00004EBCC044FEAD1374FEA826206FB07FCA4
:103C000042EA90124FEA80604FEA1C4C0CFB0BF723
:103C1000D21B03FB0CF761EB07010CFB0EF7B0EBBB
:103C2000074072EB17420CFB08F734BFA2EB0742C8
:103C3000B2EB074261EB17414FEA8C554FEA91070F
:103C400004EB9C2406FB07FC4FEA1C4C0CFB0BF717
:103C5000B0EBC74072EB573203FB0CF734BFA2EB5B
:103C6000C742B2EBC74261EB57310CFB0EF7B0EB2A
:103C7000C70072EB57720CFB08F734BFA2EBC70208
:103C8000B2EBC70261EB577115EB4C254FEA81612E
:103C900041EA92114FEA82624FEAD13742EA90122A
:103CA00006FB07FC44F100044FEA80604FEA1C4C1D
:103CB0000CFB0BF7D21B03FB0CF761EB07010CFBB2
:103CC0000EF7B0EB074072EB17420CFB08F734BF5E
:103CD000A2EB0742B2EB074261EB174115EB1C1553
:103CE0004FEA813141EA92414FEA823242EA904200
:103CF0004FEA80304FEA0C7644F1000448EA03436F
:103D00004EEA0B484FF0000EB2EB080C71EB0307C4
:103D100024BF624639464EEB0E0E4FF0000B0018E2
:103D2000524149414BEB0B0BB2EB080C71EB030713
:103D30007BF1000B24BF624639464EEB0E0E4FF06E
:103D4000000B0018524149414BEB0B0BB2EB080C36
:103D500071EB03077BF1000B24BF624639464EEB43
:103D60000E0E51EA020718BF46F0010616EB0E765A
:103D700055F1000254F1000103D5BDE88901BDE809
:103D80000088BDE88901BDE80048B619524141EB01
:103D90000101A3F10103704780807F7E7D7C7B7AE7
:103DA0007978777676757473727171706F6E6E6DE7
:103DB0006C6C6B6A6A69686867666665646463638D
:103DC00062616160605F5F5E5E5D5D5C5C5B5B5A13
:103DD0005A59595858575756565555555454535380
:103DE00052525251515050504F4F4F4E4E4D4D4DDB
:103DF0004C4C4C4B4B4B4A4A4A4949494848484726
:103E00004747474646464545454444444443434363
:103E1000434242424241414146EA0646A3F57053BD
:103E20004FEA164646EA42564FEAD22242EA415249
:103E300010B54FEAD121A3F1010300F02FF820F0D3
:103E4000004000F1020C00F0004701EB0050114669
:103E5000BCF5006F40EA070000D210BDBAF1000FB8
:103E60000AD01CB503B44FF004004FF004014FF02A
:103E700000000FBCBDE810404FF00001BBF1010F86
:103E8000B9BF04484FF0FF310348002140EA070062
:103E900010BD00BFFFFFEF7F0000F07F002B9C46AE
:103EA00030D477002BD01CB54FEA370703B44FF05E
:103EB00010004FF01001BAF1000F06D0BCF1000F56
:103EC000DCBF40F0080040F008014FF000000FBCDC
:103ED000BDE810400BF1010BBBF1010F08BF5FEA19
:103EE000170722BF12F1010211F101014FF0004149
:103EF00043F1000300F0004043EA00007047F9D3AB
:103F00005708D0E746EA064613F1400F4FEA164637
:103F10001FDD13F1200FDFBF16430A4600212033B7
:103F20005B42BED0C3F1200746EA064602FA07F715
:103F30004FEA164646EA0706C3F1200722FA03F2C3
:103F400001FA07F721FA03F14FF0000342EA0702F2
:103F5000A7E746EA020646EA06464FEA164646EA5A
:103F60000106BCBF46EA0646360C4FF000034FF090
:103F700000024FF0000194E72DE9804C9A469346E9
:103F800070B491E8380007C831EA400C48BF34EA01
:103F9000430C03D5FFF7A4FDFFF780FFF0BCBDE89D
:103FA000008C2DE9804C9A46934670B491E8380015
:103FB00007C831EA400C48BF34EA430C03D5FFF789
:103FC0008FFDFFF729FFF0BCBDE8008C2DE9804C88
:103FD0009A46934670B491E8380007C810F0804FB5
:103FE00008BF13F0804F03D100F01AF8FFF756FF17
:103FF000F0BCBDE8008C2DE9804C9A46934670B425
:1040000091E8380007C810F0804F08BF13F0804FC8
:1040100003D100F005F8FFF7FFFEF0BCBDE8008C0F
:1040200020F07F4780EA030023F07F4C07EB0C036E
:10403000A3F57C5300F00040A3F1FE0392F0000FC3
:1040400000F0B38095F0000F00F077802DE9014972
:104050004FEA11404FEA144621EA004800FB06FCF3
:1040600024EA064708FB06F607FB08F800FB07F7FB
:1040700018EB06484CEB164C4FEA124B18EB07486E
:104080004FEA15464CEB174022EA0B4E0BFB06FCA1
:1040900025EA06470EFB06F607FB0EFE0BFB07F7AD
:1040A0001EEB064E4CEB164C4FF000061EEB074E77
:1040B0004CEB174B18EB0B0840F1000018EB0E0B04
:1040C00058EB000840F100008F1A4FF000013CBF90
:1040D000C943661B14BFB5EB040C00213CBFC943A8
:1040E000F61B4FEA17444EEA8E0E27EA04454FEAC4
:1040F0001C4704FB07622CEA074C05FB07F70CFB87
:1041000005F604FB0CFC16EB074642EB174216EBD8
:104110000C4642EB1C421BEB060658EB02024141E7
:1041200046EA9E0601D5BDE80189B619524141EB28
:104130000101A3F10103BDE801894FEA14454FEAEB
:10414000114724EA054621EA074C05FB07F406FB64
:1041500007F70CFB06F105FB0CFC11EB074144EBE8
:1041600017444FEA124711EB0C4144EB1C4422EA7E
:10417000074C05FB07F206FB07F70CFB06F605FBF1
:104180000CFC16EB074642EB174216EB0C4642EBD3
:104190001C456A1854F1000148BF7047B6195241D6
:1041A00041EB0101A3F10103704795F0000F37D0F7
:1041B0004FEA11424FEA144721EA024624EA074C2B
:1041C00002FB07F106FB07F70CFB06F402FB0CFCF5
:1041D00014EB074441EB17414FEA154714EB0C442D
:1041E00041EB1C4125EA074C02FB07F506FB07F7EC
:1041F0000CFB06F602FB0CFC16EB074645EB1745DD
:1042000016EB0C4645EB1C42121951F1000148BF58
:104210007047B619524141EB0101A3F10103704708
:104220004FEA14454FEA114724EA054621EA074CB4
:1042300005FB07F106FB07F70CFB06F24FF0000643
:1042400005FB0CFC12EB074241EB174112EB0C4251
:1042500051EB1C4148BF7047921841EB0101A3F19B
:104260000103704738B504466846AFF30080014645
:10427000204634F0E3FC38BDCA430260704721B1E8
:10428000826842F00102826003E0826822F001024B
:10429000826070470021084A1168084A1140D0E93D
:1042A00000231A4383681A43C3681A431143044A1C
:1042B000C2F804137047000004230140E030FCFF03
:1042C000002001400146C86C80B2704702460020C1
:1042D00013680B400BB1012000E000207047000084
:1042E00030B50246002000235068104C20400D7964
:1042F0000C6844EA05242043506090680C4C204030
:10430000D1E903542C438D682C434D7944EA45048C
:1043100020439060D06A20F470000C7D641EE4B2EB
:10432000234340EA0350D06230BD0000FFFEFFFC93
:10433000FDF7FFC0F0B504460D4600200021092D11
:1043400011DDE068A5F10A0606EB4607072606FA26
:1043500007F18843A5F10A0606EB460603FA06F1C3
:104360000843E0600CE0206905EB4507072606FAE4
:1043700007F1884305EB450603FA06F1084320617F
:10438000072A0FDA606B561E06EB86071F2606FA11
:1043900007F18843561E06EB860605FA06F1084328
:1043A000606322E00D2A0FDA206BD61F06EB86072A
:1043B0001F2606FA07F18843D61F06EB860605FA84
:1043C00006F10843206310E0E06AA2F10D0606EB57
:1043D00086071F2606FA07F18843A2F10D0606EBB1
:1043E000860605FA06F10843E062F0BD816841F0F7
:1043F00080418160704700001CB50121042001F05C
:1044000053FC2020009001208DF8040000208DF83E
:10441000060003208DF8050001208DF8070069468D
:10442000014800F087FF1CBD0008024000B58DB0B8
:104430000121042001F038FC0121080201F064FC94
:104440000121480201F060FC0121880201F05CFCBE
:104450000120019003208DF8080000208DF80B004A
:1044600001A92E4800F066FF0220019003208DF87C
:10447000080000208DF80B0001A9284800F05AFF21
:104480000420019003208DF8080000208DF80B0017
:1044900001A9224800F04EFF0020039004900590EF
:1044A000069003A8FFF7F6FE002007908DF8200085
:1044B00001208DF82100002009900B9001208DF83B
:1044C000300007A91648FFF70BFF07A91548FFF7AB
:1044D00007FF07A91448FFF703FF01231A460A2123
:1044E0000F48FFF727FF01231A460B210D48FFF75E
:1044F00021FF01231A460C210B48FFF71BFF012166
:104500000748FFF7BCFE01210648FFF7B8FE01216E
:104510000548FFF7B4FE0DB000BD000000080240E2
:1045200000200140002101400022014000B587B079
:104530000121084601F0B8FB0121480701F0C4FB46
:104540001020059003208DF8180000208DF81B0026
:1045500005A9174800F0EEFE2020059003208DF8F5
:10456000180000208DF81B0005A9114800F0E2FE9C
:104570000020019002900390049001A900F008FC33
:1045800001A9102000F004FC0121002000F0ECFB48
:104590000121102000F0E8FB4FF4B561002000F08D
:1045A00011FC40F25C41002000F01CFC07B000BD93
:1045B0000000024000BFFEE71CB50121042001F00D
:1045C00073FB1020009001208DF8040000208DF86E
:1045D000060003208DF8050002208DF807006946CB
:1045E000034800F0A7FE1021014800F017FF1CBD92
:1045F0000008024010B500F0B7F810BD10B500F08B
:10460000F3F910BD2DE9F84F81460F469246B7F8F1
:1046100000B0BAF800000090B9F800403248FBF74B
:10462000E1FF5946002000F0DDFB4FF07C0813E06D
:104630004146002000F0C6FB142000F0E5FB2B48AB
:1046400000F0F0FE0546A54202DA2C46CDF80080C7
:1046500008F13E001FFA80F840F244708045E7DD23
:10466000224623A00099FBF7BDFF2A48FBF7BAFFBB
:104670000020009900F0A6FB7C2611E031460020C6
:1046800000F0B0FB142000F0BFFB184800F0CAFE99
:104690000546A54201DC2C46B34606F13E0086B233
:1046A00040F244708642E9DD224659461AA0FBF7E3
:1046B00099FF3888584515D0A7F800B00098AAF897
:1046C0000000A9F8004021461CA0FBF78BFF5946CB
:1046D0001FA0FBF787FF21A00099FBF783FF0020B5
:1046E000BDE8F88F00BFFBE7988604080020014072
:1046F000B5DAD2BBC2D620B4D6B5F7BAF374656DBD
:10470000705F713A25642C61645F6D696E203A2593
:10471000640A0000E8860408B5DAD2BBC2D620B429
:10472000D6B5F7BAF374656D705F693A25642C618C
:10473000645F6D696E203A25640A000061645F6DF4
:10474000696E5F746D703120203A25640A000000A4
:1047500044415F49203A2564200A000044415F51EA
:10476000203A2564200A000070B50024002500BF0F
:1047700012E0274B03EB4402264B03EB4401264B8C
:1047800003EB440000F07EF8234830F81420214663
:1047900022A0FBF727FF641C042CEADB2548FBF76B
:1047A00021FF002409E01C4830F814001A4931F8B0
:1047B0001510884200DC2546641C042CF3DB2946D6
:1047C0001DA0FBF70FFF134830F81510002000F074
:1047D00009FB0F4830F81510002000F0F3FA142000
:1047E00000F012FB174800F01DFE0646094830F89D
:1047F000151015A0FBF7F6FE054830F8151017A0A8
:10480000FBF7F0FE31461AA0FBF7ECFE70BD00008E
:10481000E8000020F0000020F80000200A204144B9
:104820005F565F475B25645D206973202564200A1D
:10483000000000004486040874656D70203A20254D
:10484000640A0000002001400A2044415F492069B9
:1048500073203A25642020200A0000000A204441E9
:104860005F51206973203A25642020200A0000004F
:104870000A2041445F4D696E206973203A25642007
:104880000A0000002DE9F74F84B08946924652464F
:1048900049460498FFF7B6FE401C20B94FF0FF30A0
:1048A00007B0BDE8F08FBAF800502F46B9F80040C5
:1048B00026460498B0F800807C2C03DDA4F17C002F
:1048C00084B200E000247C2D03DDA5F17C0085B2DC
:1048D00000E0002501940095019C04F1F80080B2ED
:1048E0000390009D05F1F80002902648FBF77AFE40
:1048F000019C1EE0009D16E02146002000F072FAA7
:104900002946002000F05EFA142000F07DFA1E48CF
:1049100000F088FD8346C34502DCD84626462F4674
:1049200005F1180085B202988542E5D904F1180016
:1049300084B203988442DDDD43463A46314613A0F3
:10494000FBF750FEB9F80000B04203D1BAF80000FE
:10495000B84214D0A9F80060AAF800700498A0F832
:104960000080414615A0FBF73DFE314618A0FBF73D
:1049700039FE394619A0FBF735FE002090E700BF4D
:104980008EE700003887040800200140B5DAB6FE43
:10499000C2D620CFB8B5F7BAF374656D705F693AC7
:1049A00025642C74656D705F713A25642C61645FB9
:1049B0006D696E203A25640A0000000061645F6D35
:1049C000696E5F746D703220203A25640A00000021
:1049D00044415F49203A2564200A000044415F5168
:1049E000203A2564200A00002DE9F04740F6FF79BF
:1049F0002CA0FBF7F7FD7C262BE07C2522E031463E
:104A0000002000F0EFF92946002000F0DBF92946EC
:104A100032A0FBF7E7FD314634A0FBF7E3FD14209D
:104A200000F0F2F9354800F0FDFC0446214634A0C0
:104A3000FBF7D8FD4C4502DCA1463746A84605F1F8
:104A40003E0085B240F244708542D8DD06F13E005A
:104A500086B240F244708642CFDD3946002000F035
:104A6000C1F94146002000F0ADF9142000F0CCF966
:104A7000224800F0D7FC0446394626A0FBF7B2FDD9
:104A8000414629A0FBF7AEFD21462CA0FBF7AAFD6D
:104A90002F48A0F800802F4807802F480480BDE8E9
:104AA000F08700003D2D2D2D2D2D2D2D2D2D2D2D63
:104AB0002D2D2D2D2D2D2D2D2D2D2D2D2D2D2D351E
:104AC0002D2D2D2D2D2D2D2D2D2D2D2D2D2D2D2D16
:104AD0002D2D2D2D2D2D2D2D3D00000044415F51FC
:104AE000206973203A25640A0000000044415F49B0
:104AF000206973203A25640A00000000002001406C
:104B000041445F56616C7565206973203A25640ADB
:104B1000000000000A2044415F49206973203A25C3
:104B2000642020200A0000000A2044415F512069CF
:104B300073203A25642020200A0000000A20414406
:104B40005F4D696E206973203A2564200A000000D9
:104B5000E8000020F0000020F800002008B5012047
:104B60001B4B052200901B4801781B4800F03AFFC0
:104B700001201A4B0622009016480178164800F0D2
:104B800031FF0120164B0022009012480178124894
:104B900000F028FF0120134B022200900D480178FD
:104BA0000D4800F01FFF01200F4B024600900948FE
:104BB0000178094800F016FF0C48007800F024F84E
:104BC0000B490870084601780AA0FBF70BFD08BDE9
:104BD0001F0100201C01002000540040240100207F
:104BE0002001002021010020220100201D010020C1
:104BF0001E0100200A203038D7B4CCACBCC4B4E6C7
:104C0000C6F7A3BA25780A001CB504460120009017
:104C100005480078401CC1B201AB2246034800F0B1
:104C2000FBFD9DF804001CBD1C0100200054004049
:104C300000B587B00121042001F036F801210420DD
:104C400001F032F80121880401F03EF807220A2120
:104C5000234800F0B7FB07220B21214800F0B2FBEC
:104C60004FF48060059002208DF8180000208DF828
:104C70001A0002208DF8190001208DF81B0005A9EB
:104C8000174800F057FB4FF40060059001208DF8A5
:104C90001A008DF81B0005A9114800F04BFB4FF4DA
:104CA000E13001900020ADF80800ADF80A00ADF841
:104CB0000C00ADF810000C20ADF80E0001A9094859
:104CC00002F0C4FA012240F22551064802F099FA96
:104CD0000121044802F0F5F900F006F807B000BD24
:104CE000000802400048004008B527208DF8000069
:104CF00000208DF8010002208DF8020001208DF8BF
:104D00000300684600F054FF08BD00001CB50121F7
:104D1000084600F0C9FF00208DF8040001208DF83E
:104D200007000220009069460D4800F003FB0020B8
:104D30008DF8040002208DF80700012000906946DC
:104D4000074800F0F7FA00208DF8040001208DF8E4
:104D50000700702000906946024800F0EBFA1CBD85
:104D600000000240000C024039B1084A12680123D9
:104D700083401A43054B1A6006E0044A1268012377
:104D800083409A43014B1A60704700000074004052
:104D900030B5002200230A4C226840F6FE7484409D
:104DA000A243D1E900452C438D682C43CD6844EAE9
:104DB000050303FA00F42243014C226030BD0000D9
:104DC0000074004008B500220092054A009200F1EC
:104DD0000802009B1A440092009A116008BD00006E
:104DE0000074004008B500220092054A009200F1CC
:104DF0001402009B1A440092009A116008BD000042
:104E000000740040704700000349088000BF024959
:104E100009880029FBD17047180000201CB501212A
:104E2000084600F041FF4FF40040009001208DF84B
:104E3000040000208DF8060003208DF805000120F5
:104E40008DF807006946074800F074FA4FF40041F6
:104E5000044800F0E5FA01F0F9FC03A0FBF7C2FBFF
:104E60001CBD000000000240464C4153485F5350B7
:104E700049206973207265616479210D0A00000080
:104E800010B5012000F07EF828B104200249087016
:104E9000012000F071F810BD2601002010B502209D
:104EA00000F070F8002818D002210C4800F0ADFA8C
:104EB00030B906200A4908700AA0FBF793FB09E005
:104EC0000020074908700EA0FBF78CFB0121154854
:104ED00002F017F8022000F04FF810BD0000024069
:104EE00026010020204B45595F54595045203D2054
:104EF000545249475F444F574E3B200A0000000080
:104F00004B45595F54595045203D20545249475F05
:104F10005550202626206F70656E2054494D332051
:104F20000A0000000004004010B5102000F02AF82C
:104F300028B1032002490870102000F01DF810BDB0
:104F40002601002010B5202000F01CF830B102200E
:104F500008490870202000F00FF809E0402000F018
:104F600011F828B1012003490870402000F004F82E
:104F700010BD0000260100200149086070470000B4
:104F8000143C0140014600200022074B1B6803EA45
:104F90000102054B14331B680B4013B10AB1012009
:104FA00000E0002070470000003C01400021234940
:104FB0008279002A3AD00A46126803689A430B465F
:104FC0001A600A1D126803689A430B1D1A60027961
:104FD00011440A6803681A430A60184A08321268C2
:104FE00003689A43154B08331A601A1D1268036848
:104FF0009A43124B0C331A604279102A0ED11A1FB1
:10500000126803681A430D4B08331A601A1D1268A0
:1050100003681A43094B0C331A600DE007494279C3
:1050200011440A6803681A430A6005E002791144D2
:105030000A6803689A430A6070470000003C014018
:105040001CB50121082000F02FFE0121042000F0F2
:105050002BFE0121084600F027FE4FF4604000902F
:1050600000208DF804008DF8060003208DF805005F
:1050700001208DF807006946214800F05BF94020C7
:10508000009000208DF804008DF8060003208DF8B4
:10509000050001208DF8070069461A4800F04AF91A
:1050A0004FF44070009001208DF8040000208DF82E
:1050B000060003208DF8050000208DF807006946E2
:1050C000104800F037F94FF400710E4800F0A6F9CF
:1050D0004FF480710B4800F0A3F94FF480700090FA
:1050E00000208DF804008DF8060003208DF80500DF
:1050F00001208DF807006946034800F01BF91CBD2C
:10510000000C024000080240000002401CB50121D2
:10511000102000F0C9FD0121082000F0C5FD01218B
:10512000042000F0C1FD0121042000F0BDFD01219B
:10513000042000F0B9FD0121084600F0B5FD04206F
:10514000009001208DF8040000208DF806008DF8F5
:10515000070003208DF8050069465A4800F0EAF878
:105160000820009000208DF804008DF80600012032
:105170008DF8070003208DF805006946514800F0BE
:10518000D9F81020009000208DF804008DF806005A
:1051900002208DF8070003208DF805006946494874
:1051A00000F0C8F82020009001208DF804000020B5
:1051B0008DF806008DF8070003208DF8050069467C
:1051C000404800F0B7F84020009000208DF804001F
:1051D0008DF8060001208DF8070003208DF80500EA
:1051E0006946384800F0A6F84FF48050009001203E
:1051F0008DF8040000208DF806008DF807000320CC
:105200008DF805006946304800F094F88020009041
:1052100000208DF804008DF8060001208DF80700AD
:1052200003208DF805006946284800F083F84FF404
:105230000070009001208DF8040000208DF8060019
:105240008DF8070003208DF8050069461F4800F01F
:1052500071F84FF48070009000208DF804008DF8F4
:10526000060001208DF8070003208DF8050069462F
:10527000174800F05FF84FF48070009001208DF81F
:10528000040000208DF806008DF8070003208DF83B
:10529000050069460D4800F04DF84FF4007000908D
:1052A00001208DF8040000208DF8060001208DF803
:1052B000070003208DF805006946024800F03AF81F
:1052C00000BF1CBD00100240000C0240000802405C
:1052D0000000024010B5FFF719FF00F00FF84FF47F
:1052E0000071044800F09CF84FF48051024800F02F
:1052F00097F810BD00100240000C02401CB50121BF
:10530000082000F0D1FC4FF48050009001208DF86F
:10531000040000208DF8060003208DF80500002011
:105320008DF807006946024800F004F81CBD000033
:10533000000C0240F0B50A4600210023002400BF03
:105340003DE0012505FA01F3156805EA03049C42D6
:1053500034D105684F000326BE40B543056015797A
:105360004E00B5400668354305601579012D02D021
:105370001579022D16D185684F000326BE40B5432E
:10538000856055794E00B54086683543856045682F
:1053900001268E40B5434560456896798E40B6B289
:1053A00035434560C5684F000326BE40B543C56020
:1053B000D5794E00B540C6683543C560491C1029F3
:1053C000BFD3F0BDF0B5002300244D07ED0E02FA67
:1053D00005F3CE1000F1200555F826504E07F70EC4
:1053E0000F26BE40B543CF1000F1200646F82750E7
:1053F000CE1000F1200555F8265045EA0304CE10E2
:1054000000F1200545F82640F0BD02460020136952
:105410000B400BB1012000E0002070474183704732
:1054200001837047F0B58BB00746282101A8FBF730
:1054300033FC00200090002427E002213846FEF7CC
:105440001BFF20213846FEF717FF3846FEF7CEFF38
:1054500000BF02213846FEF739FF0028F9D020218D
:105460003846FEF733FF20B120213846FEF704FF0F
:105470000DE002213846FEF7FFFE3846FEF722FF18
:1054800001A921F81400601CC4B2142CD5DB00BFA4
:1054900001241EE0002516E001A830F8151001AA2D
:1054A000681C32F8100081420BDA01A830F8156050
:1054B00001A9681C31F8100021F81500681C21F8BA
:1054C0001060681CC5B2C4F11400A842E4DC601C82
:1054D000C4B2142CDEDB022409E001A931F8141057
:1054E000009B591840F100000091601CC4B2122CBE
:1054F000F3DBBDF80000C11700EB11710911009139
:10550000BDF800000BB0F0BD00BFFEE700B587B0EE
:105510000121022000F0C8FB0121480500F0D4FB66
:10552000042207211F48FFF74DFF042208211D48D0
:10553000FFF748FF4FF4C070019002208DF808007B
:1055400001208DF80A0002208DF8090000208DF856
:105550000B0001A91348FFF7EDFE134800F082F895
:105560000020ADF810004BF6FF70ADF812003020AF
:10557000ADF814004FF48060ADF816000001ADF8EE
:1055800018000A4803900121074800F05EF803A9BB
:10559000054800F0CDF80121034800F009F807B0F4
:1055A00000BD00000004024000540040801A0600C4
:1055B00021B1028842F48062028004E002884FF642
:1055C000FF331A400280704738B504460D4600BFCD
:1055D0000121204600F076F81421204600F094F9CD
:1055E000009000222946204600F09DF91421204613
:1055F00000F08AF900F002000028E9D004492046B2
:1056000000F01DF80121204600F068F838BD0000C8
:105610000004001070B5024600240025002300207D
:10562000958A138B1B0445EA030626F07F4404EA9F
:1056300001068E4201D1012000E0002070BD002251
:1056400021F07F42D3438382704721B1028842F028
:105650000102028004E002884FF6FE731A400280C5
:105660007047000010B504461348844209D1012157
:10567000480500F039FB00214FF4001000F034FB26
:1056800018E00E48844209D10121880500F02CFB66
:1056900000214FF4800000F027FB0BE00848844213
:1056A00008D10121C80500F01FFB00214FF40000C4
:1056B00000F01AFB10BD00000054004000580040EC
:1056C000005C004021B1028842F48072028004E054
:1056D00002884FF6FF631A400280704721B10288AA
:1056E00042F40072028004E002884FF6FF531A4031
:1056F000028070470CB502460020002301930093FE
:1057000000920B0F019321F07F41019B1BB1009B85
:105710001433009303E0090C009B18330093009BA3
:105720001B680B400BB1012000E000200CBD000005
:105730002DE9FF4704460D460026B1460427DFF851
:10574000CC80A6884FF6C0700640684600F0FCFA90
:10575000DDF808802E48B8FBF0F01FFA80F946EA21
:105760000906A68020884FF6FE710840208000269A
:105770002849286888420CD828684000B8FBF0F017
:1057800087B2042F00DA04273E4309F10100208488
:1057900027E0E8884BF6FF71884206D1286800EBC5
:1057A0004000B8FBF0F087B209E0286800EBC001C8
:1057B00001EB0010B8FBF0F087B247F48047C7F365
:1057C0000B0008B947F0010747F4004006434FF4C7
:1057D000967009FB00F04FF47A7190FBF1F0401CD9
:1057E0002084A683208840F00100208026884FF680
:1057F000F5300640A8886989084306432680A889B1
:10580000298908432081BDE8FF87000000127A0043
:1058100040420F00A08601002DE9F041074688466E
:1058200016461D46069C14B90120BDE8F08100BF54
:105830004FF400313846FFF75DFF0028F8D1012111
:105840003846FFF7B5FE01213846FFF73BFF00BFA2
:105850002B493846FFF7DEFE0028F9D000224146EA
:10586000384600F060F800BF26493846FFF7D2FE00
:105870000028F9D03146384600F05DF800BF2149D4
:10588000891C3846FFF7C6FE0028F8D001213846AB
:10589000FFF718FF00BF1A493846FFF7BBFE002884
:1058A000F9D001224146384600F03DF800BF1449C6
:1058B000491C3846FFF7AEFE0028F8D018E0012C4E
:1058C00007D100213846FFF773FE01213846FFF764
:1058D00005FF00BF0A493F313846FFF79BFE00280D
:1058E000F8D0384600F01BF828706D1C601E84B29A
:1058F000002CE4D101213846FFF75AFE002094E73E
:10590000010003008200070008B502460020009055
:1059100000920098084400900098008808BD014655
:10592000088AC0B2704712B141F0010101E001F0F4
:10593000FE010182704701827047000010B506A089
:10594000FAF750FE63220DA113A0FAF74BFE1DA03B
:10595000FAF748FE10BD0000546865204932432024
:10596000636F6D6D756E69636174696F6E206973C5
:1059700020636F727275707465640A002E2E5C531A
:1059800072635C7573725C68775F6D6F64656C5C85
:105990006932632E6300000057726F6E672070617A
:1059A00072616D65746572732076616C75653A20FD
:1059B00066696C65202573206F6E206C696E6520AA
:1059C00025640A00706C6561736520636865636BAC
:1059D00020796F7572206969632063686970200D92
:1059E0000A0000002DE9F0470746884615461C4688
:1059F000DDF8209000260BE014F8013B2A46691CD4
:105A0000CDB24146384600F011F808B1701CC6B25C
:105A1000B9F10000A9F101011FFA81F9ECD116B129
:105A20000120BDE8F0870020FBE700002DE9F041F0
:105A300006460F4614461D464FF420404449086070
:105A40000AE043490868411E414A116020B9FFF746
:105A500075FFC0B2BDE8F0814FF400313046FFF76A
:105A600049FE0028EDD101213046FFF72BFE4FF40F
:105A700080503749086009E035490868411E344ABA
:105A8000116018B9FFF75AFFC0B2E3E73149304659
:105A9000FFF7C0FD0028EFD04FF480502C4908607C
:105AA000002239463046FFF73EFF09E028490868E2
:105AB000411E274A116018B9FFF740FFC0B2C9E77D
:105AC00025493046FFF7A6FD0028EFD02146304695
:105AD000FFF731FF4FF480501D49086000BF1E4999
