:020000040800F2
:10000000C8F5012041020008510700084105000819
:100010004D0700087D03000895150008000000004A
:10002000000000000000000000000000850D000836
:100030008103000800000000CD07000859020008F5
:100040005B0200085B0200085B0200085B0200081C
:100050005B0200085B0200085B0200085B0200080C
:100060005B0200085B0200085B0200085B020008FC
:100070005B0200085B0200085B0200085B020008EC
:100080005B0200085B0200085B0200085B020008DC
:100090005B0200085B0200085B0200085B020008CC
:1000A0005B0200085B0200085B0200085B020008BC
:1000B000D11100085B0200085B0200085B02000827
:1000C0005B0200085B0200085B0200085B0200089C
:1000D0005B0200085B0200085B0200085B0200088C
:1000E0005B0200085B0200085B0200085B0200087C
:1000F0005B0200085B0200085B0200085B0200086C
:100100005B0200085B0200085B0200085B0200085B
:100110005B0200085B0200085B0200085B0200084B
:100120005B0200085B0200085B0200085B0200083B
:100130005B0200085B0200085B0200085B0200082B
:100140005B0200085B0200085B0200085B0200081B
:100150005B0200085B0200085B0200085B0200080B
:100160005B0200085B0200085B0200085B020008FB
:100170005B0200085B0200085B0200085B020008EB
:100180005B02000800F002F800F03AF80AA090E8DC
:10019000000C82448344AAF10107DA4501D100F042
:1001A0002FF8AFF2090EBAE80F0013F0010F18BFD5
:1001B000FB1A43F001031847601700008017000086
:1001C000103A24BF78C878C1FAD8520724BF30C883
:1001D00030C144BF04680C60704700000023002455
:1001E00000250026103A28BF78C1FBD8520728BF47
:1001F00030C148BF0B6070471FB51FBD10B510BDA3
:1002000000F041F81146FFF7F7FF01F013FB00F093
:100210005FF803B4FFF7F2FF03BC00F067F80000DB
:10022000EFF30980704780F309887047EFF3088087
:10023000704780F30888704740BA7047C0BA70476B
:100240000948804709480047FEE7FEE7FEE7FEE76A
:10025000FEE7FEE7FEE7FEE7FEE7FEE704480549A6
:10026000054A064B7047000075110008850100081B
:10027000C8050020C8F50120C8950120C8950120B7
:10028000704770477047754600F02CF8AE46050081
:100290006946534620F00700854618B020B5FFF7A1
:1002A000DDFFBDE820404FF000064FF000074FF0A3
:1002B00000084FF0000B21F00701AC46ACE8C00984
:1002C000ACE8C009ACE8C009ACE8C0098D4670478D
:1002D00010B50446AFF300802046BDE81040FFF79C
:1002E00098BF0000004870476805002001491820A9
:1002F000ABBEFEE726000200704710B500220121C8
:10030000880701F06AF800214FF0804000F07FFF7D
:1003100010BD1FB54FF47A740121084600F068FA49
:10032000E00600F081FF0020ADF80200ADF8080003
:10033000601E01904720ADF800006946E00601F01C
:1003400057F81C208DF80C000A208DF80D000020B5
:100350008DF80E0001208DF80F0003A800F0FAF9C7
:100360000021E00601F042F801221146900701F059
:1003700034F80121880700F04AFF1FBD00BFFEE7E7
:100380007047000000B587B00121084600F020FA50
:100390000121084600F01CFA0121102000F048FA63
:1003A00007220921214800F08DF807220A211F4861
:1003B00000F088F84FF40070059002208DF81800C6
:1003C00000208DF81A0002208DF8190001208DF808
:1003D0001B0005A9154800F02DF84FF4806005902A
:1003E00001208DF81A008DF81B0005A90F4800F0B8
:1003F00021F84FF4E13001900020ADF80800ADF88D
:100400000A00ADF80C00ADF810000C20ADF80E009D
:1004100001A9074801F050F80121054801F033F81F
:100420004021034801F026F807B000BD000002405B
:1004300000100140F0B50A4600210023002400BF4F
:100440003DE0012505FA01F3156805EA03049C4225
:1004500034D105684F000326BE40B54305601579C9
:100460004E00B5400668354305601579012D02D070
:100470001579022D16D185684F000326BE40B5437D
:10048000856055794E00B54086683543856045687E
:1004900001268E40B5434560456896798E40B6B2D8
:1004A00035434560C5684F000326BE40B543C5606F
:1004B000D5794E00B540C6683543C560491C102942
:1004C000BFD3F0BDF0B5002300244D07ED0E02FAB6
:1004D00005F3CE1000F1200555F826504E07F70E13
:1004E0000F26BE40B543CF1000F1200646F8275036
:1004F000CE1000F1200555F8265045EA0304CE1031
:1005000000F1200545F82640F0BD000008B50020A8
:10051000009004E0684600F005FD00B10AE00748DD
:10052000406840F6B831884201DC012000E000203C
:100530000028EFD100BF9DF8000008BD5800002042
:1005400000BFFEE7F0B5144A00250024002320E098
:10055000B1FBF2F6303606F0FF0C2E466D1C00F8AB
:1005600006C0B1FBF2F602FB16110A26B2FBF6F248
:100570006E1E865D302E01D1012600E000260CB9EA
:10058000012700E000273E400EB1002500E0641C7A
:100590005B1C0A2BDCD3F0BD00CA9A3B10B50024CB
:1005A00045E02848007810B101283ED112E026A08D
:1005B00000F0D8FC34A000F0D5FC39A000F0D2FC4B
:1005C0003CA000F0CFFC4AA000F0CCFC01201D496B
:1005D00008702BE049A000F0C5FCFFF797FF044628
:1005E000312C05D100F0D6FB47A000F0BBFC18E091
:1005F000322C16D147A000F0B5FC4CA000F0B2FCA4
:10060000FFF77BFE4A4840684A4908600846006890
:100610004949086046490868FFF70BFE46480068EC
:10062000804746A000F09EFC00BF00BF00BF4648C8
:100630004068B0F5967F01DC012000E00020002832
:10064000AFD110BD380000200D2A2A2A2A2A2A2AD2
:100650002A2A2A2A2A2A2A2A2A2A2A2A2A2A2A2AFA
:100660002A2A2A2A2A2A2A2A2A2A2A2A2A2A2A2AEA
:100670002A2A2A2A2A2A2A2A2A2A2A2A2A2A2A2ADA
:100680002A2A0D0A00000000312EB8FCD0C2D3A6E1
:10069000D3C3C7F8B3CCD0F2A3BB0D0A000000004F
:1006A000322ED4CBD0D0415050B3CCD0F2A1A30D38
:1006B0000A0000002A2A2A2A2A2A2A2A2A2A2A2A38
:1006C0002A2A2A2A2A2A2A2A2A2A2A2A2A2A2A2A8A
:1006D0002A2A2A2A2A2A2A2A2A2A2A2A2A2A2A2A7A
:1006E0002A2A2A2A2A2A2A2A2A2A2A2A2A0D0A00D1
:1006F000C7EBD1A1D4F13A0D0A0000002E2E2E2E08
:100700002E2E0D0A000000000DCFC2D4D8CDEAB3C2
:10071000C90A0D00D5FDD4DAD4CBD0D0D3A6D3C32B
:10072000B3CCD0F22E2E2E0D0A000000200D0A00B0
:100730000000010828000020240000200DBDF8C89A
:10074000EB4150500A0D00005800002000BFFEE7AA
:100750007047000070B5002100230F22C4781CB33D
:10076000174C246804F4E064C4F5E064C4F3072182
:10077000C1F10404E3B20A4144789C40E1B28478B8
:10078000144021430C07210E0E4C05786155047866
:1007900004F01F050124AC4005786D11AD0005F192
:1007A000E025C5F8004109E0047804F01F050124A4
:1007B000AC40054D0678761145F8264070BD000026
:1007C0000CED00E000E400E080E100E07047000094
:1007D00029B1064A12680243044B1A6004E0034A36
:1007E00012688243014B1A607047000030380240A3
:1007F00029B1064A12680243044B1A6004E0034A16
:1008000012688243014B1A60704700004038024072
:1008100029B1064A12680243044B1A6004E0034AF5
:1008200012688243014B1A60704700002038024072
:1008300029B1064A12680243044B1A6004E0034AD5
:1008400012688243014B1A6070470000443802402E
:1008500029B1064A12680243044B1A6004E0034AB5
:1008600012688243014B1A6070470000243802402E
:10087000F0B5002100220024022500260223324F79
:100880003F6807F00C0121B1042905D0082937D1B0
:1008900005E02E4F076036E02D4F076033E02A4F0A
:1008A0003F1F3F68C7F38056274F3F1F3F6807F041
:1008B0003F036EB1264FB7FBF3F7DFF88CC0ACF106
:1008C000040CDCF800C0CCF3881C07FB0CF40CE033
:1008D0001E4FB7FBF3F7DFF870C0ACF1040CDCF887
:1008E00000C0CCF3881C07FB0CF4174F3F1F3F6878
:1008F000C7F301477F1C7D00B4FBF5F7076002E0FA
:10090000124F076000BF00BF0F4F3F6807F0F001B4
:100910000909104F7A5C0768D74047600A4F3F6863
:1009200007F4E051890A0B4F7A5C4768D74087602B
:10093000054F3F6807F46041490B064F7A5C4768F2
:10094000D740C760F0BD0000083802400024F40022
:1009500040787D011400002070B505460C4606E085
:10096000284600F0DFFA012801D1002070BD201ECA
:10097000A4F10104F4D1401EF8E72DE9F843044640
:100980000D4690460020286041466846FFF7E4FF88
:1009900018B14FF0FF30BDE8F8839DF8000018282B
:1009A00013D006DC012809D0022809D0042820D160
:1009B00009E041281AD061281BD118E080271BE0EC
:1009C0004FF4806718E00020E5E741466846FFF7EE
:1009D000C3FF40B99DF80000182804D14FF0FF3044
:1009E00028600020D7E74FF0FF30D4E700BF012098
:1009F000D1E74FF0FF30CEE700BF9DF80000207038
:100A0000012609E0A0194146FFF7A6FF10B14FF0FB
:100A1000FF30C0E7701C86B2781D8642F2DB617839
:100A2000A07880F0FF00814202D04FF0FF30B2E7A3
:100A30002F600020AFE7000070B50546002419487C
:100A400000F010F9044654BB1748006820F44070C9
:100A5000154908600846006840F4007008600846C0
:100A6000006820F0F80008600846006840EAC50009
:100A700008600846006840F0020008600846006808
:100A800040F480300860074800F0ECF80446012C80
:100A900005D00548006820F00200034908602046A0
:100AA00070BD0000400D0300103C024001463A4872
:100AB000814201D2002070473848814201D2012092
:100AC000F9E73748814201D20220F4E735488142F4
:100AD00001D20320EFE73448814201D20420EAE743
:100AE0003248814201D20520E5E73148814201D2F6
:100AF0000620E0E72F48814201D20720DBE72E489D
:100B0000814201D20820D6E72C48814201D2092037
:100B1000D1E72B48814201D20A20CCE7B1F1016F25
:100B200001D20B20C7E72748814201D20C20C2E73F
:100B30002548814201D20D20BDE72448814201D2DF
:100B40000E20B8E72248814201D20F20B3E72148A6
:100B5000814201D21020AEE71F48814201D211200C
:100B6000A9E71E48814201D21220A4E71C48814215
:100B700001D213209FE71B48814201D214209AE73B
:100B80001948814201D2152095E71848814201D2C7
:100B9000162090E717208EE700400008008000082C
:100BA00000C000080000010800000208000004085E
:100BB000000006080000080800000A0800000C08F1
:100BC00000000E08004010080080100800C0100847
:100BD00000001108000012080000140800001608A8
:100BE0000000180800001A0800001C0800001E0879
:100BF00000210E48016801F4803008B101207047DF
:100C000001F0100008B10220F9E701F0200008B15E
:100C10000220F4E701F0400008B10220EFE701F004
:100C2000800008B10220EAE70020E8E70C3C02401F
:100C30000348006840F00040014908607047000028
:100C4000103C024001460868704700000248034912
:100C5000086003480860704723016745043C024070
:100C6000AB89EFCD70B5044600BFFFF7C1FF054665
:100C7000012D00D005E00A2000F082FD641E002C4A
:100C8000F3D100BF04B9FF25284670BD2DE9F04718
:100C900004460E4617464FF000080025A946B4F159
:100CA000006F02D304F0030008B1BDE8F087FFF73E
:100CB000CDFF1D48006820F480601B490860254670
:100CC00004EB87091948854214D210E02846FFF743
:100CD000B9FF401C50B12846FFF7E8FE8246FFF7F7
:100CE000ABFE8046B8F1000F01D002E02D1D4D454E
:100CF000ECD300BFB8F1000F0BD107E020463168FC
:100D000000F016F800B103E0241D361D4C45F5D364
:100D100000BF0548006840F4806003490860FFF7A1
:100D200087FF00BFC1E70000003C02400000FF1F3A
:100D300070B505460E46FF20FFF794FF0446E4B960
:100D40000F48006820F440700D49086008460068AC
:100D500040F4007008600846006840F00100086038
:100D60002E60FF20FFF77EFF0446012C05D00448CB
:100D7000006820F0010002490860204670BD0000B4
:100D8000103C0240704710B50446204600F0DAF8E7
:100D9000002010BD3EB51DA207CA8DE80700002443
:100DA0001DA000F0DFF82B4800F0F6FB0446002CF5
:100DB00016DD294800F0D6F8284800F0D3F821467F
:100DC0006846FFF7BFFB26A000F0CCF8684600F0AD
:100DD000C9F826A000F0C6F827A000F0C3F814E078
:100DE000601C18B92AA000F0BDF80EE0A01C18B9CC
:100DF00037A000F0B7F808E0E01C18B93BA000F0FD
:100E0000B1F802E03FA000F0ADF83EBD2020202068
:100E1000202020202020000057616974696E67201F
:100E2000666F72207468652066696C6520746F2037
:100E300062652073656E74202E2E2E2028707265D8
:100E400073732027612720746F2061626F72742989
:100E50000A0D00003E000020C418000868000020B1
:100E60000A0D2053697A653A200000002042797407
:100E700065730D0A000000002D2D2D2D2D2D2D2D1B
:100E80002D2D2D2D2D2D2D2D2D2D2D0A0000000069
:100E90000A0A0D54686520696D6167652073697A77
:100EA0006520697320686967686572207468616E7F
:100EB0002074686520616C6C6F7765642073706165
:100EC0006365206D656D6F7279210A0D0000000069
:100ED0000A0A0D566572696669636174696F6E20EE
:100EE0006661696C6564210A0D0000000D0A0A4103
:100EF000626F7274656420627920757365722E0A60
:100F00000D0000000A0D4661696C656420746F2055
:100F100072656365697665207468652066696C65CD
:100F2000210A0D0010B504462021054800F0B7FA4B
:100F300020B1034880882070012010BD0020FCE70C
:100F40000010014010B504462146054800F01EFB84
:100F500000BF8021024800F0A2FA0028F9D010BD9D
:100F60000010014010B5044603E02078FFF7EAFFC7
:100F7000641C20780028F8D110BD00000CB50020BA
:100F8000019000902D48006840F480302B490860A3
:100F900000BF2A48006800F4003000900198401C0F
:100FA0000190009818B90198B0F5A06FF1D12348CD
:100FB000006800F4003010B10120009001E0002032
:100FC00000900098012838D11C48083000681B495F
:100FD000083108600846006840F400400860084690
:100FE000006840F4A05008601548091F0860081FF9
:100FF000006840F08070091F086000BF0F4800685B
:1010000000F000700028F9D040F203700D4908602C
:101010000A480830006820F00300084908310860D9
:101020000846006840F00200086000BF034808302E
:10103000006800F00C000828F8D10CBD0038024010
:10104000193C4005003C024070B502460C460021A8
:10105000002500231078302843D15078782802D01A
:10106000507858283DD1907808B9002070BD0221F1
:1010700030E0505C10B9236001252DE0505C412820
:1010800002DB505C46280BDD505C612802DB505CC3
:10109000662805DD505C302819DB505C392816DCE9
:1010A000505C302805DB505C392802DC505C30385D
:1010B0000AE0505C412805DB505C462802DC505CAD
:1010C000373801E0505C573800EB031301E000258E
:1010D00002E0491C0B29CCD300BF0B2934D30025D7
:1010E00032E000212AE0505C10B92360012527E09E
:1010F000505C6B2802D0505C4B2804D119B19B0284
:10110000236001251CE0505C6D2802D0505C4D2806
:1011100004D119B11B052360012511E0505C302872
:1011200009DB505C392806DC505C303803EB830661
:1011300000EB460301E0002502E0491C0B29D2D355
:1011400000BF0B2900D3002528468FE7042808D1CB
:101150004FF0E021096941F004014FF0E0221161F4
:1011600007E04FF0E021096921F004014FF0E0228F
:101170001161704710B51248006840F00100104935
:10118000086000200E49083108600D4800680D49CC
:1011900008400B4908600C48091D0860081F0068DA
:1011A00020F48020091F0860002005490C310860E8
:1011B000FFF7E4FE4FF000600449086010BD000036
:1011C00000380240FFFFF6FE1030002408ED00E07A
:1011D00010B500240121880700F0EEF8012810D195
:1011E0000121800700F010F800BF08E0054850F822
:1011F0002400401C034941F82400601C84B2042CE4
:10120000F4DB10BD58000020CA430282704721B1B0
:10121000028842F00102028004E002884FF6FE7369
:101220001A4002807047000010B5044655488442B9
:1012300008D101210846FFF70BFB00210120FFF731
:1012400007FB9DE0B4F1804F08D101210846FFF76C
:10125000DFFA00210120FFF7DBFA91E04A488442DF
:1012600008D101210220FFF7D3FA00210220FFF765
:10127000CFFA85E04548844208D101210420FFF7D8
:10128000C7FA00210420FFF7C3FA79E040488442FE
:1012900008D101210820FFF7BBFA00210820FFF741
:1012A000B7FA6DE03B48844208D101211020FFF7D6
:1012B000AFFA00211020FFF7ABFA61E03648844214
:1012C00008D101212020FFF7A3FA00212020FFF7F9
:1012D0009FFA55E03148844208D101210220FFF7EE
:1012E000B7FA00210220FFF7B3FA49E02C48844204
:1012F00009D101210804FFF7ABFA00214FF4803037
:10130000FFF7A6FA3CE02748844209D101214804AE
:10131000FFF79EFA00214FF40030FFF799FA2FE013
:101320002148844209D101218804FFF791FA002164
:101330004FF48020FFF78CFA22E01C48844208D149
:1013400001214020FFF764FA00214020FFF760FAF6
:1013500016E01748844208D101218020FFF758FA8F
:1013600000218020FFF754FA0AE01248844207D196
:1013700001218015FFF74CFA0021A015FFF748FA6C
:1013800010BD0000000001400004004000080040C3
:10139000000C004000100040001400400004014018
:1013A0000040014000440140004801400018004056
:1013B000001C00400020004030B502460020002301
:1013C0000024158A05EA0103958905EA010413B191
:1013D0000CB1012000E0002030BD1AB183890B431D
:1013E000838102E083898B43838170474162704728
:1013F00000220288184B98420ED0184B98420BD00E
:10140000B0F1804F08D0164B984205D0154B98424A
:1014100002D0154B984204D14FF68F731A404B8877
:101420001A43124B984207D0114B984204D04FF602
:10143000FF431A400B891A4302804B68C3620B8832
:101440000385054B984202D0044B984201D18B7A18
:10145000038601238382704700000140000401409D
:101460000004004000080040000C00400010004054
:101470000014004001F40072B2F5007F00D100BFFB
:10148000CA430280704721B1828942F400528281AE
:1014900004E082894DF6FF731A408281704702464C
:1014A0000020B1F5007F00D100BF13880B400BB1C5
:1014B000012000E0002070472DE9FF4705460E4659
:1014C0000024A14600BFA046B08900B100BF2C8A0D
:1014D00024F44054F08804432C82AC8941F20C601F
:1014E0008443B08831890843718908430443AC813F
:1014F000AC8A24F44074B0890443AC826846FFF798
:10150000B7F92048854202D01F48854202D1DDF854
:101510000C9001E0DDF80890A88900F4004040B18B
:1015200009EBC90000EB091031684900B0FBF1F785
:1015300007E009EBC90000EB091031688900B0FB36
:10154000F1F76420B7FBF0F004012009642101FBEE
:101550001078A88900F4004040B1322000EBC800A8
:10156000B0FBF1F000F00700044308E0322000EB8C
:1015700008106421B0FBF1F000F00F0004432C814F
:10158000BDE8FF870010014000140140C1F30802CC
:101590008280704700BFFEE72DE9F04FADF2244D89
:1015A0000746002000906248624908604FF0000A38
:1015B0004FF000080020019000BF0026B346B94656
:1015C00000BF4FF4801202A907A8FFF7D6F910B1A7
:1015D00001287DD180E04FF000080298B0F1FF3F74
:1015E00001D070B907E00620FFF7CDFB00200DF217
:1015F000244DBDE8F08F0620FFF7C5FB4FF0010B2F
:1016000068E09DF81D00F1B2884203D01520FFF775
:10161000BAFB5FE0002E48D19DF81F0000283DD0A6
:1016200000250DF11F0405E014F8012B28466D1C60
:1016300041490A54207808B1FF2DF5DD00222846E3
:101640006D1C3D490A540025641C05E014F8012B6B
:1016500028466D1C03A90A542078202801D0102D9B
:10166000F4DB002228466D1C03A90A54694603A82E
:10167000FFF7EAFC0098B0F5801F08DB1820FFF7A1
:1016800082FB1820FFF77FFB4FF0FF30AFE706200B
:10169000FFF779FB4320FFF776FB16E00620FFF704
:1016A00072FB4FF0010BDA4614E00DF11F012148E7
:1016B000029A006800F08AF81E48006802990844FF
:1016C0001C4908600620FFF75EFB761C012000E045
:1016D0000BE0019000BF1CE01820FFF754FB18201E
:1016E000FFF751FB6FF0020081E70198002801DD50
:1016F00008F10108B8F1050F07DD1820FFF743FBDB
:101700001820FFF740FB002071E74320FFF73BFB69
:1017100000BF00BFBBF1000F3FF453AF00BF00BFDD
:10172000BAF1000F3FF449AF00BF00BF00985EE779
:1017300000000108400000206800002010B56FF094
:101740000400FFF703FD0A4800680A49B0FBF1F006
:10175000094908700846007800EB4001C1EBC01051
:101760004FF6FF7101EAC0000449088010BD000077
:101770000000002000127A003A0000203C00002007
:101780000146114A12784A434FF0E0235A61002281
:101790009A611A46126942F001021A6100BF4FF0C5
:1017A000E022106900F001021AB100F48032002A30
:1017B000F5D04FF0E022126922F001024FF0E02351
:1017C0001A6100229A6170473A0000202DE9F05F0B
:1017D0000746884691460025BB464446AA461DE07A
:1017E000E0780606A07846EA0046607846EA0026D9
:1017F00020780643241D2846691C8DB20C4941F807
:101800002060B5F5807F07D100254FF480725846DF
:10181000FFF73CFA0BF5806B0AF1040ACA45DFD3E7
:1018200025B12A4602495846FFF730FABDE8F09F35
:1018300068010020FEF7A6FDFEF76BFDFFF77EFFB7
:1018400011A0FFF78FFBFEF7A9FE154800681549A8
:101850000840B0F1005F11D1FEF74FFD104840681D
:101860001149086008460068104908600C4908687A
:10187000FEF7DFFC0D480068804702E00CA0FFF790
:1018800071FB00BFFEE70000BDF8C8EB626F6F742C
:101890006C6F616465722056312E310D0A000000B4
:1018A000000001080000FE2F280000202400002076
:1018B0006E6F20757365722050726F6772616D0D67
:1018C0000A0A00000A0A0D2050726F6772616D6D7E
:1018D000696E6720436F6D706C6574656420537525
:1018E000636365737366756C6C79210A0D2D2D2DFC
:1018F0002D2D2D2D2D2D2D2D2D2D2D2D2D2D2D2D18
:101900002D2D2D2D2D2D2D2D2D2D2D2D2D0D0A2057
:101910004E616D653A200000381900080000002073
:1019200058000000C001000890190008580000206D
:1019300070F50100DC010008000E27070000000020
:10194000000000000102030406070809000000006F
:101950000102030401020304060708090000000055
:101960000000000000000000000000000000000077
:101970000000000000000000000001080008000056
:10198000000000000000000008000000000000004F
:040000050800018569
:00000001FF
